:020000040800F2
:10000000000002209D070008E5070008B9790008F4
:10001000E5070008E5070008E50700080000000004
:10002000000000000000000000000000E5070008DC
:10003000E507000800000000E5070008A9790008AE
:10004000E5070008E5070008E5070008E5070008E0
:10005000E5070008E5070008E5070008E5070008D0
:10006000E5070008E5070008E5070008595E0008F5
:10007000655E0008E5070008715E00087D5E000807
:10008000CD76000831530008E5070008E5070008B1
:10009000E5070008E5070008E5070008E507000890
:1000A000E5070008E5070008E5070008E507000880
:1000B000E5070008E5070008E507000861530008A8
:1000C000E50700086D530008E5070008D56600083D
:1000D000E5070008A170000849710008F9710008DF
:1000E000E5070008E507000800000000E507000834
:1000F000E5070008E5070008E5070008E1660008D5
:10010000E5070008E5070008E5070008E50700081F
:10011000A972000859730008E5070008E507000800
:10012000E5070008E5070008E5070008E5070008FF
:10013000E5070008E5070008E5070008E5070008EF
:1001400000000000000000000000000000000000AF
:10015000E5070008E5070008E5070008097400083E
:1001600079530008E5070008E5070008E5070008DF
:10017000E5070008E5070008E5070008E5070008AF
:10018000E5070008E5070008B9740008697500086C
:10019000E5070008E5070008E5070008E50700088F
:1001A000E5070008E5070008E5070008E50700087F
:1001B000D15A0008E5070008E5070008E507000830
:1001C000E5070008E5070008E5070008E50700085F
:1001D000E5070008E5070008E5070008E50700084F
:1001E000E5070008E5070008E5070008E50700083F
:1001F000E5070008E5070008E5070008E50700082F
:10020000E5070008E5070008E5070008E50700081E
:10021000E5070008E5070008E5070008E50700080E
:10022000E5070008E5070008E507000800000000F2
:10023000E5070008E507000800000000E5070008E2
:10024000E5070008E5070008E5070008E5070008DE
:10025000E5070008E5070008E5070008E5070008CE
:10026000E5070008E5070008E5070008E5070008BE
:10027000E5070008E50700081976000800000000FF
:10028000E5070008E5070008E50700080000000092
:0802900000000000E507000872
:1002A00001F0FF01102A2BDB10F0070F08D010F827
:1002B000013B013A8B422DD010F0070F42B3F6D12B
:1002C000F0B441EA012141EA014122F007047FF044
:1002D00000070023F0E80256083C85EA010586EA9B
:1002E000010685FA47F5A3FA87F586FA47F6A5FAD7
:1002F00087F68EB9EED1F0BC01F0FF0102F00702E3
:1003000032B110F8013B013A83EA010313B1F8D18D
:100310000020704701387047002D06BF354603386E
:10032000073815F0010F07D1013015F4807F02BFA7
:10033000013015F4C03F0130F0BC0138704700BFF8
:10034000034613F8012B002AFBD1181A0138704715
:1003500010F8012B11F8013B012A28BF9A42F7D06F
:10036000D01A704781F0004102E000BF83F00043E3
:1003700030B54FEA41044FEA430594EA050F08BF40
:1003800090EA020F1FBF54EA000C55EA020C7FEA04
:10039000645C7FEA655C00F0E2804FEA5454D4EB81
:1003A0005555B8BF6D420CDD2C4480EA020281EA4B
:1003B000030382EA000083EA010180EA020281EA83
:1003C0000303362D88BF30BD11F0004F4FEA0131D5
:1003D0004FF4801C4CEA113102D0404261EB4101E4
:1003E00013F0004F4FEA03334CEA133302D052426A
:1003F00063EB430394EA050F00F0A780A4F1010426
:10040000D5F1200E0DDB02FA0EFC22FA05F280185F
:1004100041F1000103FA0EF2801843FA05F3594145
:100420000EE0A5F120050EF1200E012A03FA0EFCC4
:1004300028BF4CF0020C43FA05F3C01851EBE371EE
:1004400001F0004507D54FF0000EDCF1000C7EEB0B
:1004500000006EEB0101B1F5801F1BD3B1F5001F49
:100460000CD349085FEA30004FEA3C0C04F1010468
:100470004FEA445212F5800F80F09A80BCF1004F91
:1004800008BF5FEA500C50F1000041EB045141EA13
:10049000050130BD5FEA4C0C404141EB0101013CDC
:1004A00028BFB1F5801FE9D291F0000F04BF0146CB
:1004B0000020B1FA81F308BF2033A3F10B03B3F19D
:1004C00020020CDA0C3208DD02F1140CC2F10C022D
:1004D00001FA0CF021FA02F10CE002F11402D8BF8B
:1004E000C2F1200C01FA02F120FA0CFCDCBF41EA57
:1004F0000C019040E41AA2BF01EB0451294330BD26
:100500006FEA04041F3C1CDA0C340EDC04F1140402
:10051000C4F1200220FA04F001FA02F340EA0300D9
:1005200021FA04F345EA030130BDC4F10C04C4F11F
:10053000200220FA02F001FA04F340EA03002946FF
:1005400030BD21FA04F0294630BD94F0000F83F449
:10055000801306BF81F480110134013D4EE77FEA2C
:10056000645C18BF7FEA655C29D094EA050F08BF78
:1005700090EA020F05D054EA000C04BF1946104659
:1005800030BD91EA030F1EBF0021002030BD5FEA9D
:10059000545C05D14000494128BF41F0004130BDC5
:1005A00014F580043CBF01F5801130BD01F0004519
:1005B00045F0FE4141F470014FF0000030BD7FEA8C
:1005C000645C1ABF194610467FEA655C1CBF0B4687
:1005D000024650EA013406BF52EA033591EA030F9E
:1005E00041F4002130BD00BF90F0000F04BF002196
:1005F000704730B54FF4806404F132044FF00005C9
:100600004FF0000150E700BF90F0000F04BF002141
:10061000704730B54FF4806404F1320410F00045A7
:1006200048BF40424FF000013EE700BF42004FEAA2
:10063000E2014FEA31014FEA02701FBF12F07F431F
:1006400093F07F4F81F06051704732F07F4208BFD6
:10065000704793F07F4F04BF41F40021704730B5DD
:100660004FF4607401F0004521F000411CE700BF29
:1006700050EA010208BF704730B54FF000050AE0AC
:1006800050EA010208BF704730B511F0004502D5AD
:10069000404261EB41014FF4806404F132045FEAAF
:1006A000915C3FF4D8AE4FF003025FEADC0C18BF58
:1006B00003325FEADC0C18BF033202EBDC02C2F14A
:1006C000200300FA03FC20FA02F001FA03FE40EADC
:1006D0000E0021FA02F11444BDE600BF53B94AB935
:1006E000002908BF00281CBF4FF0FF314FF0FF303A
:1006F00000F00CB8ADF1080C6DE904CE0FF00AFE65
:10070000DDF804E0DDE9022304B07047704700BF64
:100710000348044B834202D0034B03B11847704790
:10072000A8020024A8020024000000000548064B8F
:100730001B1AD90F01EBA301491002D0034B03B1DF
:1007400018477047A8020024A802002400000000F7
:1007500010B5064C237843B9FFF7DAFF044B13B109
:100760000448AFF300800123237010BDA8020024C9
:1007700000000000C00E010808B5054B1BB105497B
:100780000548AFF30080BDE80840FFF7CFBF00BFCA
:1007900000000000AC020024C00E01080C4D0D4CFE
:1007A00003E02B682360043504340B4B9C42F8D1E2
:1007B0000A4C02E0002323600434094B9C42F9D127
:1007C00007F0A4FA0FF0F8F900F0AEFF00BFFDE764
:1007D000EC0E010800000024A8020024A802002456
:1007E000D42F002400BFFDE780B582B000AF87EDB5
:1007F000010A97ED010A0EF05BFFF0EE407AB0EED1
:10080000670A0837BD4680BD80B582B000AF87ED6E
:10081000010A97ED010A0EF05BFEF0EE407AB0EEB1
:10082000670A0837BD4680BD80B483B000AF7860EA
:100830007B6818460C37BD465DF8047B704780B472
:1008400083B000AF78607B6818460C37BD465DF812
:10085000047B704780B483B000AF78607B6800226F
:100860001A607B6818460C37BD465DF8047B7047FC
:1008700080B483B000AF78607B6800221A607B6828
:1008800018460C37BD465DF8047B704780B483B0D2
:1008900000AF78607B6800221A607B6818460C37CE
:1008A000BD465DF8047B704780B483B000AF7860CC
:1008B0007B6818460C37BD465DF8047B704780B4F2
:1008C00083B000AF78607B6818460C37BD465DF892
:1008D000047B704780B483B000AF78607B681846B3
:1008E0000C37BD465DF8047B704780B483B000AF21
:1008F00078607B6800221A607B6818460C37BD461A
:100900005DF8047B704780B483B000AF78603960D5
:100910003B6818460C37BD465DF8047B704780B4D1
:1009200083B000AF78607B6818460C37BD465DF831
:10093000047B704780B483B000AF78607B68184652
:100940000C37BD465DF8047B704780B483B000AFC0
:1009500078607B6800221A607B6818460C37BD46B9
:100960005DF8047B704780B483B000AF78607B682B
:1009700000221A807B6800225A807B6800229A80BD
:100980007B680022DA807B6818460C37BD465DF82C
:10099000047B704780B582B000AF78600B467B80E7
:1009A00013463B807B6800221A807B6800225A80B5
:1009B000B7F902301A460021786800F021FA0346A0
:1009C0001A467B689A80B7F900301A460021786889
:1009D00000F016FA03461A467B68DA807B681846F0
:1009E0000837BD4680BD80B584B000AFF8600846CA
:1009F00011461A4603467B810B463B811346FB801A
:100A0000FB687A891A80FB683A895A80B7F9063000
:100A10001A460021F86800F0F3F903461A46FB680D
:100A20009A80B7F918301A460021F86800F0E8F902
:100A300003461A46FB68DA80FB6818461037BD4645
:100A400080BD80B483B000AF78607B68B3F90030BC
:100A500018460C37BD465DF8047B704780B483B000
:100A600000AF78607B68B3F9023018460C37BD469A
:100A70005DF8047B704780B483B000AF78607B681A
:100A8000B3F900309AB27B68B3F904309BB21344D7
:100A90009BB21BB218460C37BD465DF8047B70470D
:100AA00080B483B000AF78607B68B3F902309AB24B
:100AB0007B68B3F906309BB213449BB21BB2184655
:100AC0000C37BD465DF8047B704780B483B000AF3F
:100AD00078607B68B3F900309AB27B68B3F9043070
:100AE000002B00DA01335B101BB29BB213449BB2A4
:100AF0001BB218460C37BD465DF8047B704780B4C6
:100B000083B000AF78607B68B3F902309AB27B683B
:100B1000B3F90630002B00DA01335B101BB29BB235
:100B200013449BB21BB218460C37BD465DF8047BDC
:100B300070470000F0B587B002AFF860B9607A6026
:100B40003B603B68082B00F2538101A252F823F06E
:100B50008B0D0008750B0008CF0B0008990B0008DF
:100B6000130C0008950C00084B0C0008ED0C000855
:100B7000330D00087B68B3F900107B68B3F90220DD
:100B8000BB68B3F90400BB68B3F9063000930346B1
:100B9000F868FFF728FF2EE17868FFF76CFF03463F
:100BA0009AB2BB68B3F904309BB2D31A9BB219B2A4
:100BB0007B68B3F90220BB68B3F90400BB68B3F9E2
:100BC000063000930346F868FFF70DFF13E1BB689A
:100BD000B3F900309CB27868FFF777FF03469DB207
:100BE000B868FFF772FF03469BB2EB1A9BB223442F
:100BF0009BB219B27B68B3F90220BB68B3F9040059
:100C0000BB68B3F9063000930346F868FFF7EBFEC4
:100C1000F1E07B68B3F900407868FFF741FF0346D5
:100C20009AB2BB68B3F906309BB2D31A9BB21AB220
:100C3000BB68B3F90410BB68B3F9063000930B46E8
:100C40002146F868FFF7CFFED5E07868FFF713FF7D
:100C500003469AB2BB68B3F904309BB2D31A9BB275
:100C60001CB27868FFF71CFF03469AB2BB68B3F961
:100C700006309BB2D31A9BB21AB2BB68B3F9041008
:100C8000BB68B3F9063000930B462146F868FFF7BE
:100C9000AAFEB0E0BB68B3F900309CB27868FFF7F9
:100CA00014FF03469DB2B868FFF70FFF03469BB2DF
:100CB000EB1A9BB223449BB21CB27868FFF7F0FE9C
:100CC00003469AB2BB68B3F906309BB2D31A9BB203
:100CD0001AB2BB68B3F90410BB68B3F906300093CD
:100CE0000B462146F868FFF77EFE84E07B68B3F987
:100CF0000060BB68B3F902309CB27868FFF7FFFE72
:100D000003469DB2B868FFF7FAFE03469BB2EB1AA2
:100D10009BB223449BB21AB2BB68B3F90410BB6800
:100D2000B3F9063000930B463146F868FFF75BFED7
:100D300061E07868FFF79FFE03469AB2BB68B3F99B
:100D400004309BB2D31A9BB21EB2BB68B3F9023017
:100D50009CB27868FFF7D3FE03469DB2B868FFF7F0
:100D6000CEFE03469BB2EB1A9BB223449BB21AB24F
:100D7000BB68B3F90410BB68B3F9063000930B46A7
:100D80003146F868FFF72FFE35E0BB68B3F9003055
:100D90009CB27868FFF799FE03469DB2B868FFF7EA
:100DA00094FE03469BB2EB1A9BB223449BB21EB245
:100DB000BB68B3F902309CB27868FFF7A0FE034627
:100DC0009DB2B868FFF79BFE03469BB2EB1A9BB23D
:100DD00023449BB21AB2BB68B3F90410BB68B3F9E1
:100DE000063000930B463146F868FFF7FCFD02E041
:100DF000F868FFF7B8FDF8681437BD46F0BD00BFCE
:100E000080B483B000AF78600B467B8013463B8094
:100E1000B7F90220B7F900309A4202DDB7F9023083
:100E200001E0B7F9003018460C37BD465DF8047B89
:100E30007047000080B483B000AF7860044A7B68DC
:100E40001A607B6818460C37BD465DF8047B704716
:100E5000AC07010880B483B000AF7860044A7B68B7
:100E60001A607B6818460C37BD465DF8047B7047F6
:100E7000AC07010880B582B000AF78607868FFF7F2
:100E8000E9FF082178680DF0AFFF7B681846083746
:100E9000BD4680BD80B582B000AF78600B467B80D8
:100EA00013463B807B681B680C331B687868984747
:100EB00003461A467B88934209D37B681B680C3330
:100EC0001B68786898470346013B9BB200E07B882B
:100ED0007A6893807B681B6808331B68786898473A
:100EE00003461A463B88934209D37B681B68083344
:100EF0001B68786898470346013B9BB200E03B883B
:100F00007A68D38000BF0837BD4680BD80B582B007
:100F100000AF78607B681846FFF79CFC7B68143351
:100F20001846FFF7B3FC7B6818331846FFF7C7FC79
:100F30007B6820331846FFF79BFC7B6824331846F8
:100F4000FFF7EDFC7B6830331846FFF76DFC7B68DC
:100F500018460837BD4680BD80B582B000AF7860C6
:100F60007B6830331846FFF76AFC7B6824331846E9
:100F7000FFF7E0FC7B6818331846FFF7ABFC7B6893
:100F800014331846FFF790FC7B6818460837BD46B7
:100F900080BD80B582B000AF78600B46FB707B6887
:100FA00008330021184604F073F87868F91C6423AC
:100FB000012205F08BFC00BF0837BD4680BD80B51F
:100FC00084B000AFF860B9607A60FB680833012133
:100FD000184604F05DF8F86864237A68B96805F08B
:100FE00075FC00BF1037BD4680BD80B584B000AF32
:100FF00078607B68FB60F86800F013FF7B68184638
:101000001037BD4680BD80B582B000AF78607B6888
:10101000184600F041FC7B6818460837BD4680BD85
:1010200080B582B000AF78607B681846FFF7EBFFB1
:101030007B6818460837BD4680BDF0B587B000AF65
:10104000F860C7E90023F868FFF7EAFF0821F868AD
:1010500000F080FC00237B611EE07B69D900D7E9AA
:101060000023C1F12006B1F1200022FA01F403FAB5
:1010700006F644EA060402D443FA00F0044343FAB5
:1010800001F5E3B2FB7407F113031946F86800F0A9
:10109000E1FC7B6901337B617B69072BDDDD00BFF0
:1010A000F8681C37BD46F0BD80B483B000AF7860EF
:1010B000044A7B681A607B6818460C37BD465DF8A9
:1010C000047B70478407010880B483B000AF786068
:1010D000044A7B681A607B6818460C37BD465DF889
:1010E000047B70477407010880B584B000AF786056
:1010F0007B68FB60F86800F09DFF7B68184610373E
:10110000BD4680BD80B582B000AF78607B68184670
:1011100000F0CFFC7B6818460837BD4680BD80B51F
:1011200082B000AF78607B681846FFF7EBFF7B6802
:1011300018460837BD4680BD80B582B000AF7860E4
:1011400039607B681846FFF7AFFF7B6804331846A9
:10115000FFF7BAFF234A7B681A60234A7B685A600C
:101160007B683A689A607B6800221A7379684FF04E
:1011700000024FF00003C1E9042379684FF0000238
:101180004FF00003C1E906237B6800221A627B68E6
:1011900024331846FFF744FF7B6830331846FFF7C7
:1011A0003FFF7B683C331846FFF73AFF7B684833C4
:1011B0001846FFF7B4FF7B6824330821184600F077
:1011C000C9FB7B6830330821184600F0C3FB7B68FD
:1011D0003C330821184600F0BDFB7B6818460837F1
:1011E000BD4680BD500701086407010882B0F0B514
:1011F0009BB000AF786007F1800181E80C00D7E96F
:10120000202307F130010846FFF717FFD7E9222313
:1012100007F124010846FFF710FF07F118031846ED
:10122000FFF7FEFE07F13003184600F024FC0646E7
:1012300007F12403184600F01EFC034633445A1DF0
:1012400007F118031146184600F084FB00237B6663
:1012500008E007F118036049184600F072FC7B6E45
:1012600001337B667B6E042BF3D907F130031846FC
:1012700000F001FC064607F12403184600F0FBFBD2
:101280000346334408333B663B6E00221C4615463A
:1012900007F10C0122462B460846FFF7CEFE07F168
:1012A0001803184600F0EFFC03463B6407F14002C8
:1012B00007F13C031146184600F006FD07F10C0348
:1012C000184600F0F1FC044607F10C03184600F044
:1012D000DAFC034607F118002246F96B00F005FD21
:1012E00007F11803184600F0CEFC0346BB6407F173
:1012F000480207F144031146184600F0E5FC07F1E7
:101300003003184600F0D0FC044607F130031846BD
:1013100000F0B9FC034607F118002246796C00F092
:10132000E4FC07F11803184600F0ADFC03463B65EA
:1013300007F1500207F14C031146184600F0C4FCB7
:1013400007F12403184600F0AFFC044607F124031C
:10135000184600F098FC034607F118002246F96C85
:1013600000F0C3FC7B689D687B689B681B68083342
:101370001C6807F1180207F154031146184600F0E3
:101380001CFC07F11803184600F075FB024607F134
:10139000540319462846A04707F15403184600F0A5
:1013A000A4FA07F10C03184600F09FFA07F118039E
:1013B000184600F09AFA07F12403184600F095FA4F
:1013C00007F13003184600F090FA6C37BD46BDE8CF
:1013D000F04002B0704700BFB006010880B584B08D
:1013E00000AF786039607B6803F148023B68FB60BE
:1013F00007F10C031946104600F0B0FC00BF10378F
:10140000BD4680BDA0F10400E8E780B483B000AF22
:101410007860396000BF0C37BD465DF8047B7047CB
:10142000A0F10400F1E7000080B483B000AF786061
:10143000044A7B681A607B6818460C37BD465DF825
:10144000047B70479007010880B582B000AF7860D8
:1014500039607B681846FFF7E7FF0C4A7B681A6023
:101460007B683A685A607B68083300221A605A60C9
:101470007B6810334FF48072002118460EF03AFB5F
:101480007B6818460837BD4680BD00BF3407010899
:101490002DE9F04385B000AF786039606B461E4699
:1014A00038680DF0D1FF0346591C0B46013BFB6029
:1014B0000023884699464FF000024FF000034FEAA0
:1014C000C90343EA58734FEAC80200230C461D467D
:1014D0004FF000024FF00003EB0043EA5473E200C8
:1014E000CB1DDB08DB00ADEB030D6B460033BB60AF
:1014F00038680DF0ABFF03461946B8680EF09EFB46
:101500007B681B6804331C6838680DF09DFF034638
:101510001A46B9687868A047B54600BF1437BD467B
:10152000BDE8F0830EB480B585B000AF786007F1F8
:101530002003FB60FA68F969786800F007F800BFDB
:101540001437BD46BDE8804003B0704780B58CB00D
:1015500000AFF860B9607A60FB6803F110007B6847
:10156000BA684FF480710EF09DFAFB6803F1100128
:1015700007F12803FB6207F1280207F11003184660
:101580000DF082FF07F110031946F868FFF780FF9E
:1015900007F1100318460DF051FF07F12803184614
:1015A00000F020FC00BF3037BD4680BD80B584B060
:1015B00000AFF860B9607A60FB681B6804331B6891
:1015C0007A68B968F8689847034618461037BD46E8
:1015D00080BD80B588B000AFF860B9607A60002344
:1015E000FB610023BB6126E00023BB6100237B611C
:1015F00012E0FB69BA6813441978FA687B691344EE
:1016000008330A461A707B6901337B61FB69013339
:10161000FB61BB690133BB617B69072B03D8FB69A5
:101620007A689A42E5D2FB685868FB680833BA6961
:10163000194606F0F1F8FB697A689A42D4D8FB693A
:1016400018462037BD4680BD2DE9F04389B000AF74
:10165000F860B9607A606B461E4679680B46013BBC
:10166000BB610023884699464FF000024FF000030B
:101670004FEAC90343EA58734FEAC80200230C46F5
:101680001D464FF000024FF00003EB0043EA547395
:10169000E200CB1DDB08DB00ADEB030D6B46003336
:1016A0007B610023FB610EE0FB691946B86800F01E
:1016B000F1F9034619787A69FB6913440A461A70EE
:1016C000FB690133FB61FB697A689A42ECD8FB68DD
:1016D0001B6804331B687A687969F8689847034681
:1016E00000BFB54618462437BD46BDE8F08380B537
:1016F00082B000AF78607B685B68184606F0AAF895
:10170000034618460837BD4680BD80B582B000AF9D
:1017100078607B685B68184606F088F803461846D0
:101720000837BD4680BD000090B5D3B002AF524827
:1017300003F024F80021504803F0BCF80E2003F019
:101740003BF80346A7F8283107F59473C7F83431FE
:101750000D2003F031F80346A7F8243107F5927302
:10176000C7F83031454B4FF416529A61434B002273
:101770005A60424B01229A60404B0022DA603F4B94
:1017800002221A613D4B01225A613C4BD7F83421A9
:10179000023312881A80394AD7F830311B881380F7
:1017A0003649374805F098FF0346364A1360002350
:1017B000C7F82031002387F83F310123C7F83831BB
:1017C0000023C7F82C312E4806F01AF8034683F0A0
:1017D0000103DBB2002B05D0294806F015F8284894
:1017E00005F0FAFF97F83F311A4627492748FFF7D7
:1017F00099FE07F5A073A3F5A0714FF029024FF0F1
:101800000003C1E9002307F5A073A3F5A0714FF011
:1018100000024FF00003C1E9022307F5A073A3F50E
:10182000A0736C4603F1080292E8030084E8030009
:101830000CCB1748FFF7DAFCD7F83831DAB297F853
:101840003F31134487F83F3197F83F31114AA2FBEB
:1018500003125209642101FB02F29B1ADBB2002B36
:1018600004D1D7F838315B42C7F838314FF47A7079
:1018700006F0A4F8A7E700BFC40200241407002460
:101880003007002404000024100601083407002457
:10189000480800241F85EB5180B584B000AF786004
:1018A0007B68FB60FB68BB607B68184600F0A5FAAC
:1018B0007B6818461037BD4680BD80B582B000AF4A
:1018C00078607B6819687B689A687B681B68D31AA4
:1018D0001A46786800F0B0FA7B681846FFF785FB77
:1018E0007B6818460837BD4680BDB0B586B000AFEE
:1018F00078607B681D687B685C687B68184600F0D0
:10190000B4FA03467D613C61FB603969786900F097
:10191000FDFE00BF7B681846FFF7CFFF7B681846C7
:101920001837BD46B0BD80B582B000AF184600F094
:1019300005F8034618460837BD4680BD80B483B01D
:1019400000AF3871012318460C37BD465DF8047BA3
:1019500070470000B0B588B000AF78603960786833
:1019600000F08EFA02463B6893428CBF01230023AD
:10197000DBB2002B02D036480DF00DFD786800F088
:1019800090FA02463B6893428CBF01230023DBB2EE
:10199000002B59D0786800F06EF8B861FFF7C3FFEC
:1019A0000346002B14D07B683968184600F088FA8B
:1019B000F8617B681C687B685D687B68184600F08E
:1019C00054FA0346FA692946204600F092FA22E0CA
:1019D0007B681B68184600F0A0FA04467B685B68C9
:1019E000184600F09AFA034622463968786800F0F3
:1019F000A3FAF8617B681D687B685C687B681846A1
:101A000000F033FA03467D613C61FB603969786917
:101A100000F07CFE00BF78687B6819687B689A6874
:101A20007B681B68D31A1A4600F006FA7B68FA69CD
:101A30001A60FA69BB691A447B685A607B681A6845
:101A40003B681A447B689A6000BF2037BD46B0BD32
:101A50003006010880B582B000AF78603960386820
:101A600000F086FA03461946786800F08CFA00BF49
:101A70000837BD4680BD80B483B000AF78607B6816
:101A80005A687B681B68D31A18460C37BD465DF848
:101A9000047B704780B483B000AF786039607B68A6
:101AA0001A683B68134418460C37BD465DF8047B42
:101AB000704780B584B000AF78607B68FB60FB68DE
:101AC000BB607B68184600F0A1FA7B6818461037A7
:101AD000BD4680BD80B582B000AF78607B68196874
:101AE0007B689A687B681B68D31A9B101A467868D3
:101AF00000F0ABFA7B681846FFF7F6FA7B681846E9
:101B00000837BD4680BDB0B586B000AF78607B6851
:101B10001D687B685C687B68184600F0AFFA034676
:101B20007D613C61FB603969786900F02FFF00BF7F
:101B30007B681846FFF7CEFF7B6818461837BD460E
:101B4000B0BD90B589B000AF786039607B685A68E5
:101B50007B689B689A4223D07A687B685B68FA61ED
:101B6000BB613B687B61786900F01DFF0246FB6941
:101B70003B61BB69FB60BA60FB6819460120FEF758
:101B8000C2FE0446B86800F00EFF03461B782370BF
:101B900000BF00BF7B685B685A1C7B685A6008E026
:101BA000786800F070F803463A681946786800F0E3
:101BB00071FA00BF2437BD4690BDF0B58BB000AFC1
:101BC000786039607C683868FFF755FF05463B68E8
:101BD000184600F031FB03467B6207F10C037A6A7A
:101BE0003A62FB613B6ABB61FB697B61BB693B613C
:101BF00000BF00BF07F10C031A462946204600F03B
:101C000026FB07F10C03184600F00BF9386800F0CA
:101C100032FB0546386800F03EFB06467B681C68D0
:101C20007B68184600F021F90346224631462846D3
:101C300000F042FB02467B685A607B6818462C37EE
:101C4000BD46F0BD80B584B000AF78607A6807F11A
:101C50000C031146184600F040FBFB68184610378D
:101C6000BD4680BD80B584B000AF78607B681A1D2A
:101C700007F10C031146184600F02FFBFB681846CD
:101C80001037BD4680BD80B584B000AF78607B68FA
:101C90001A1D07F10C031146184600F039FBFB68CA
:101CA00018461037BD4680BD80B584B000AF78605F
:101CB0007A6807F10C031146184600F029FBFB680F
:101CC00018461037BD4680BD80B582B000AF786041
:101CD0003960386800F02CFB03461A687B681A608C
:101CE0007B6818460837BD4680BD90B58DB002AF01
:101CF000F860B9607A603B60F86800F024FB034646
:101D00007B6107F1140207F108031146184600F041
:101D10002AFB7862F868FFF7C7FF0346BB6107F14B
:101D20001803796A184600F032FB014600BF8DF8AF
:101D300000403B687A68F86800F040FBF868FFF7FD
:101D4000B3FF03463B6207F12003796A184600F0AF
:101D50001EFB034618462C37BD4690BD80B582B0A9
:101D600000AF78603960386800F04EFC03461946D1
:101D7000786800F054FC00BF0837BD4680BD80B5D0
:101D800082B000AF78607B681846FEF7DEFD7B68A6
:101D900018460837BD4680BD80B582B000AF786078
:101DA0007B681846FFF7EBFF7B6818460837BD468F
:101DB00080BD000080B582B000AF78607B681846B7
:101DC00000F070FC064A7B681A607B68083318468E
:101DD000FFF7E2FF7B6818460837BD4680BD00BFAD
:101DE000BC06010880B483B000AF78607B681846F9
:101DF0000C37BD465DF8047B704780B483B000AFFC
:101E000078607B6800221A607B6800225A607B68D9
:101E100000229A607B6818460C37BD465DF8047B4B
:101E2000704780B483B000AF78607B6818460C3789
:101E3000BD465DF8047B704780B588B000AFF860A0
:101E4000B9607A60BB68002B0BD0FB68FB61BB6894
:101E5000BB617B687B617A69B969F86900F0EAFF68
:101E600000BF00BF2037BD4680BD80B483B000AF47
:101E700078607B6818460C37BD465DF8047B704778
:101E800080B582B000AF78607B68184600F0D4F966
:101E90000346184600F047FC034618460837BD467F
:101EA00080BD80B483B000AF78607B689A687B683F
:101EB0001B68D31A18460C37BD465DF8047B704783
:101EC00080B584B000AF786039603B68002B0BD0E0
:101ED0007B68FB603B68BB600022B968F86800F073
:101EE000D6FF034600BF00E0002318461037BD466A
:101EF00080BD90B587B002AFF860B9607A603B6092
:101F00008DF800403B687A68B968F86800F02BFCEF
:101F1000034618461437BD4690BD80B584B000AF67
:101F2000786007F10C037968184600F02EFCFB6816
:101F300018461037BD4680BD80B586B000AFF8604A
:101F4000B9607A603B60FB68B9681846FFF7B8FF74
:101F50007861FB681846FFF788FF03467A6939689D
:101F6000786800F024FC7B6918461837BD4680BDB0
:101F700080B483B000AF78607B6818460C37BD46EC
:101F80005DF8047B7047B0B588B000AF7860396009
:101F90007B685A687B689B689A4226D07D687B681C
:101FA0005C68386800F014FC0346FD61BC617B612D
:101FB000786900F00DFC0246FB693B61BB69FB6080
:101FC000BA60FB6819460120FEF79DFC0446B8681C
:101FD00000F0FEFB03461B78237000BF00BF7B6848
:101FE0005B685A1C7B685A600CE07868FFF74BFE10
:101FF0000446386800F0ECFB03461A462146786830
:1020000000F0F2FB00BF2037BD46B0BD80B483B006
:1020100000AF78607B6800221A607B6800225A60FB
:102020007B6800229A607B6818460C37BD465DF8D5
:10203000047B704780B483B000AF78607B6818463B
:102040000C37BD465DF8047B704780B588B000AFA3
:10205000F860B9607A60BB68002B0BD0FB68FB614D
:10206000BB68BB617B687B617A69B969F86900F01C
:102070006BFF00BF00BF2037BD4680BD80B483B07A
:1020800000AF78607B6818460C37BD465DF8047B6E
:1020900070470000B0B594B000AFF860B9607A60E6
:1020A000644A0121F86800F089FCB864FB681B6889
:1020B0007B64FB685B683B64F868FFF7F5FD0346EB
:1020C0003B6107F1100207F108031146184600F0C2
:1020D000BCFC0346FB63FB68B96C1846FFF7F0FED7
:1020E000B863BB6BFB64FD68BA6BFB6BD418786894
:1020F00000F059FC03467D633C63FB62F86A00F024
:1021000052FC02467B6BBB623B6B7B623A627B6A32
:1021100019460120FEF7F7FB0446386A00F043FC3D
:1021200003461B78237000BF00BF0023FB64FFF74A
:10213000FAFB0346002B27D007F10803184600F0EE
:10214000F7F803461C68FB681846FFF78EFE034647
:10215000BA6B2146786CFFF7CCFEF864FB6C013358
:10216000FB6407F10803184600F0E2F803461C6818
:10217000FB681846FFF779FE0346FA6C396C204677
:10218000FFF7B7FEF86426E007F10803184600F0F1
:10219000CFF803461C68FB681846FFF766FE034647
:1021A000BA6B2146786C00F064FCF864FB6C013378
:1021B000FB6407F10803184600F0BAF803461C68F0
:1021C000FB681846FFF751FE0346FA6C396C20464F
:1021D00000F04FFCF864FFF7A6FB034683F0010311
:1021E000DBB2002B0ED0FB681846FFF73EFE02461E
:1021F0007B6CFB613B6CBB617A61B969F86900F08B
:1022000085FA00BFF868FB689A687B6CD31A1A4697
:10221000796CFFF711FEFB68BA6B1A60FB68FA6C09
:102220005A60BA6BBB6C1A44FB689A6000BF5037A7
:10223000BD46B0BD4006010880B483B000AF7860F1
:102240007B6818460C37BD465DF8047B704780B547
:1022500084B000AFF860B9607A60FB6879681846AE
:1022600000F020FCB968F86800F032FCFB68184602
:102270001037BD4680BD80B584B000AF78607A6805
:1022800007F10C031146184600F03CFCFB681846A9
:102290001037BD4680BD80B584B000AF78607B68E4
:1022A0001A1D07F10C031146184600F02BFCFB68C1
:1022B00018461037BD4680BD80B584B000AFF860C9
:1022C000B9607A603B607A68B968F86800F02AFC07
:1022D000034618461037BD4680BD80B483B000AFBA
:1022E000786039603B681A687B681A607B681846BA
:1022F0000C37BD465DF8047B704780B483B000AFF7
:1023000078607B6818460C37BD465DF8047B7047E3
:1023100080B483B000AF786039603B681A687B682E
:102320001A607B6818460C37BD465DF8047B704721
:1023300080B483B000AF78607B6818460C37BD4628
:102340005DF8047B704780B584B000AF78607A6830
:1023500007F10C031146184600F0D4FBFB68184641
:102360001037BD4680BD90B583B000AF786039604E
:10237000786800F0EBFB03461C68386800F0E6FB69
:1023800003461B68E31A18460C37BD4690BD80B55E
:1023900084B000AF786039607B681A683B6813448A
:1023A000FB6007F10C0207F1080311461846FFF71E
:1023B000AFFFBB6818461037BD4680BDF0B59BB077
:1023C00000AFF860B9607A603B603A463B1D114649
:1023D000184600F0C6FB0346002B00F00E817B6818
:1023E0007B623B68BB6200BF7B6ABB61BB6AFB610F
:1023F00007F1180207F11C031146184600F025FBEF
:10240000034600BF00BF7B66FB689A68FB685B6899
:10241000D31A1A467B6E934200F28980F868FFF760
:1024200032FC0346FB6207F1080207F12C03114658
:10243000184600F00AFB0346FB64FB685B68BB645C
:10244000FA6C7B6E9A422DD9FB685A687B6E5B42B0
:10245000D418FB685D68FB685E68FB681846FFF788
:1024600004FD034632462946204600F092FBFB68F5
:102470005A687B6E1A44FB685A6007F108031846D5
:10248000FFF756FF034618687B6E5B42BA6C134435
:10249000BA6C194600F096FBBA683968786800F0A3
:1024A000A9FBAAE07B687B61FB6C7B647B6C3B6473
:1024B00007F11403FB6300BF07F114032246396CD4
:1024C000184600F0EFFD00BFFB685C68FB6818462B
:1024D000FFF7CBFC034622463968786900F0A2FB7F
:1024E000FB685A68796EFB6CCB1A1A44FB685A6019
:1024F00007F108031846FFF71BFF03461C68FB683B
:102500005D68FB681846FFF7B0FC03462A46B96CC5
:10251000204600F03EFBFB685A68FB6C1A44FB68DF
:102520005A60BA687969786800F064FB65E0FB6816
:102530001B683B66FB685B68FB65324A796EF8682E
:1025400000F03CFAB865FB68B96D1846FFF7B8FCB7
:1025500078657B6D3B6507F108031846FFF7E8FED9
:1025600003461C68FB681846FFF77FFC03467A6D3C
:102570002146386E00F07DFA3865FB681846FFF793
:1025800074FC03463A6D3968786800F04BFB386597
:1025900007F108031846FFF7CBFE03461C68FB68EB
:1025A0001846FFF762FC03463A6DF96D204600F0CD
:1025B00060FA3865FB681846FFF757FC02463B6E29
:1025C000BB63FB6D7B633A63796BB86B00F09EF87D
:1025D00000BFF868FB689A683B6ED31A1A46396EDA
:1025E000FFF72AFCFB687A6D1A60FB683A6D5A6047
:1025F0007A6DBB6D1A44FB689A6000BF6C37BD46AC
:10260000F0BD00BF5C06010880B483B000AF786005
:102610007B6818460C37BD465DF8047B7047B0B543
:1026200088B000AF786039607B685A687B689B68C7
:102630009A4226D07D687B685C68386800F003FBAE
:102640000346FD61BC617B61786900F0FCFA0246DB
:10265000FB693B61BB69FB60BA60FB6819460420FB
:10266000FEF751F90446B86800F0EDFA03461B681E
:10267000236000BF00BF7B685B681A1D7B685A60DF
:102680000CE07868FFF7EEFA0446386800F0DBFAF1
:1026900003461A462146786800F0F6FA00BF203754
:1026A000BD46B0BD80B582B000AF78607B6818468B
:1026B000FEF7C0FB034A7B681A607B681846083740
:1026C000BD4680BDF806010880B582B000AF7860D5
:1026D000054A7B681A607B681846FEF7BBFB7B687F
:1026E00018460837BD4680BDF806010880B582B09F
:1026F00000AF78607868FFF7E7FF082178680CF092
:1027000073FB7B6818460837BD4680BD80B582B034
:1027100000AF786039603968786800F099FB00BFD5
:102720000837BD4680BD80B588B000AF78606FF0D7
:1027300000433B617B68FB61FB69BB61BB697B61FB
:102740006FF0004300BF00BFFB6007F10C0207F110
:1027500010031146184600F086FB03461B68184616
:102760002037BD4680BD80B584B000AFF860B96049
:102770007A603B603B687A68B968F86800F0A8FB4B
:10278000034618461037BD4680BD80B582B000AF05
:10279000786039603B46184600F0B7FB03461A687C
:1027A0007B681A607B6818460837BD4680BD80B5D7
:1027B00084B000AFF860B9607A603B607A68B9684D
:1027C000F86800F0ADFB034618461037BD4680BDE3
:1027D00080B483B000AF78607B6818460C37BD4684
:1027E0005DF8047B70470000B0B594B000AFF860AE
:1027F000B9607A60644A0121F86800F0DFF8B864D3
:10280000FB681B687B64FB685B683B64F868FFF7E8
:102810004BFA03463B6107F1100207F1080311462A
:10282000184600F012F90346FB63FB68B96C1846C2
:10283000FFF746FBB863BB6BFB64FD68BA6BFB6BD1
:10284000D4187868FFF7C4FF03467D633C63FB62DE
:10285000F86AFFF7BDFF02467B6BBB623B6B7B6296
:102860003A627B6A19460120FEF74DF80446386A41
:10287000FFF7AEFF03461B78237000BF00BF0023A5
:10288000FB64FFF750F80346002B27D007F108033D
:102890001846FFF74DFD03461C68FB681846FFF716
:1028A000E4FA0346BA6B2146786CFFF722FBF86422
:1028B000FB6C0133FB6407F108031846FFF738FD92
:1028C00003461C68FB681846FFF7CFFA0346FA6C0C
:1028D000396C2046FFF70DFBF86426E007F108038A
:1028E0001846FFF725FD03461C68FB681846FFF7EE
:1028F000BCFA0346BA6B2146786C00F0BAF8F8646B
:10290000FB6C0133FB6407F108031846FFF710FD69
:1029100003461C68FB681846FFF7A7FA0346FA6CE3
:10292000396C204600F0A5F8F864FEF7FCFF03467A
:1029300083F00103DBB2002B0ED0FB681846FFF7D3
:1029400094FA02467B6CFB613B6CBB617A61B969AE
:10295000F869FFF7DBFE00BFF868FB689A687B6CDC
:10296000D31A1A46796CFFF767FAFB68BA6B1A60DC
:10297000FB68FA6C5A60BA6BBB6C1A44FB689A60CD
:1029800000BF5037BD46B0BD4006010880B582B0DB
:1029900000AF786039603968786800F0E5FA00BF08
:1029A0000837BD4680BD80B483B000AF78607B68D7
:1029B00018460C37BD465DF8047B704790B587B06C
:1029C00000AFF860B9607A60F868FFF759FA04461A
:1029D000F868FFF750F80346E21ABB689A4234BF22
:1029E00001230023DBB2002B02D078680CF0D3FC6B
:1029F000F868FFF740F80446F868FFF73CF803462C
:102A00003B6107F1080207F110031146184600F078
:102A1000B6FA03461B6823447B61F868FFF72BF87E
:102A200002467B69934206D3F868FFF729FA02460B
:102A30007B69934204D9F868FFF722FA034600E065
:102A40007B6918461C37BD4690BD90B583B000AF7A
:102A5000786039607868FFF76BFC03461C6838685B
:102A6000FFF766FC03461B68E31A18460C37BD46A1
:102A700090BD90B585B000AFF860B9607A603B60FA
:102A8000F868FFF74AFA0446B868FFF746FA0146C5
:102A90003B687A682046FFF78AFE034618461437DB
:102AA000BD4690BD80B586B000AF786039607B6868
:102AB0007B613B683B617B69FB603B69BB607B681A
:102AC0001846FFF79AF97B6818461837BD4680BD4F
:102AD00080B582B000AF7860396039687868FFF7F8
:102AE000EFF902467B681A607B681A687B685A6057
:102AF0007B681A683B681A447B689A6000BF083795
:102B0000BD4680BD80B483B000AF786039603B685B
:102B10001A687B681A607B6818460C37BD465DF8FA
:102B2000047B704780B586B000AFF860B9607A600A
:102B30000123FB750123BB757A68B968F86800F05A
:102B400032FA034618461837BD4680BD80B483B0BC
:102B500000AF78607B6818460C37BD465DF8047B93
:102B6000704790B583B000AF786039607868FFF740
:102B7000DFFB03461C683868FFF7DAFB03461B6877
:102B80009C4214BF01230023DBB218460C37BD461C
:102B900090BD90B585B000AFF860B9607A603B60D9
:102BA000F86800F010FA0446B86800F00CFA014624
:102BB0003B687A682046FFF7FAFD0346184614374B
:102BC000BD4690BD90B585B000AFF860B9607A6041
:102BD000F86800F00DFA0446B86800F009FA0346F8
:102BE0007A681946204600F00EFA03461846143754
:102BF000BD4690BD90B585B000AFF860B9607A6011
:102C0000F86800F023FA0446B86800F01FFA03469B
:102C10007A681946204600F024FA0346184614370D
:102C2000BD4690BD80B584B000AFF860B9607A60F1
:102C30003B607A68B968F86800F042FA03461846C3
:102C40001037BD4680BD80B483B000AF78607B682C
:102C500018460C37BD465DF8047B704780B582B0DE
:102C600000AF184600F005F8034618460837BD4681
:102C700080BD80B483B000AF3871012318460C3793
:102C8000BD465DF8047B7047B0B594B000AFF86006
:102C9000B9607A60664A0121F86800F025FAB864E4
:102CA000FB681B687B64FB685B683B64F868FEF745
:102CB000C9FF03463B6107F1100207F10803114603
:102CC000184600F058FA0346FB63FB68B96C1846D7
:102CD00000F066FAB863BB6BFB64FD68FB6B9B009E
:102CE000BA6BD4187868FFF7AEFF03467D633C6388
:102CF000FB62F86AFFF7A7FF02467B6BBB623B6B88
:102D00007B623A627B6A19460420FDF7FCFD0446AB
:102D1000386AFFF798FF03461B68236000BF00BFB7
:102D20000023FB64FFF79AFF0346002B27D007F12F
:102D300008031846FFF7E1FA03461C68FB681846CB
:102D4000FFF79CF90346BA6B2146786C00F041FA14
:102D5000F864FB6C0433FB6407F108031846FFF7C3
:102D6000CCFA03461C68FB681846FFF787F9034650
:102D7000FA6C396C204600F02CFAF86426E007F172
:102D800008031846FFF7B9FA03461C68FB681846A3
:102D9000FFF774F90346BA6B2146786C00F02DFA00
:102DA000F864FB6C0433FB6407F108031846FFF773
:102DB000A4FA03461C68FB681846FFF75FF9034650
:102DC000FA6C396C204600F018FAF864FFF746FFF9
:102DD000034683F00103DBB2002B0ED0FB681846DC
:102DE000FFF74CF902467B6CFB613B6CBB617A617F
:102DF000B969F869FFF7CAFD00BFF868FB689A680F
:102E00007B6CD31A9B101A46796CFFF71EF9FB688E
:102E1000BA6B1A60FB68FA6C5A60BB6C9B00BA6BA9
:102E20001A44FB689A6000BF5037BD46B0BD00BF72
:102E30004006010880B584B000AFF860B9607A60E0
:102E40007968B8680BF0D0FF00BF1037BD4680BD71
:102E500080B483B000AF7860396000BF0C37BD46E6
:102E60005DF8047B704780B483B000AF7860396050
:102E70003B681A687B681B689A4201D23B6800E095
:102E80007B6818460C37BD465DF8047B704780B5FB
:102E900086B000AFF860B9607A60FB687B616FF064
:102EA0000042BB6893428CBF01230023DBB2002B9E
:102EB00014BF01230023DBB2002B01D00CF062FA17
:102EC000B8680BF093FF034618461837BD4680BD1F
:102ED000B0B584B000AFF860B9607A603B60F86864
:102EE00000F0A4F90446B86800F0A0F90546786837
:102EF00000F09CF902463B682946204600F0A1F903
:102F0000034618461037BD46B0BD80B483B000AF4D
:102F100078607B6818460C37BD465DF8047B7047C7
:102F200080B586B000AFF860B9607A600123FB75A8
:102F30000123BB757A68B968F86800F09DF903460B
:102F400018461837BD4680BD80B584B000AFF86024
:102F5000B9607A607B689B001946B8680BF044FF43
:102F600000BF1037BD4680BD80B483B000AF78602D
:102F7000396000BF0C37BD465DF8047B704780B4F4
:102F800083B000AF786039607B681A683B681B6863
:102F90009A4201D23B6800E07B6818460C37BD4678
:102FA0005DF8047B704780B584B000AFF860B9600D
:102FB0007A607A68B968F86800F06EF903461846D6
:102FC0001037BD4680BD80B584B000AF78603B1D32
:102FD0001846FFF79AFF03461A6807F10C031146DB
:102FE0001846FFF7D2FBFB6818461037BD4680BD78
:102FF00080B483B000AF78607B6818460C37BD465C
:103000005DF8047B7047B0B584B000AFF860B9607C
:103010007A60F86800F00AF90446B86800F006F92A
:1030200005467B68184600F001F903461A46294612
:10303000204600F049F902463B1D1146184600F0B3
:1030400053F9034618461037BD46B0BD80B483B06F
:1030500000AF78607B6818460C37BD465DF8047B8E
:103060007047B0B584B000AFF860B9607A60F868B6
:1030700000F046F90446B86800F042F90546786861
:1030800000F03EF903461A462946204600F046F96C
:1030900003461946786800F051F903461846103780
:1030A000BD46B0BD80B584B000AFF860B9603A717C
:1030B000B968F86800F057F900BF1037BD4680BD09
:1030C00080B586B000AFF860B9607A600123FB7507
:1030D0000123BB757A68B968F86800F056F90346B1
:1030E00018461837BD4680BD90B587B000AFF86070
:1030F000B9607A60F86800F058F90446F86800F0A2
:1031000065F90346E21ABB689A4234BF01230023E3
:10311000DBB2002B02D078680CF03DF9F86800F0C3
:1031200055F90446F86800F051F903463B6107F190
:10313000080207F1100311461846FFF720FF034667
:103140001B6823447B61F86800F040F902467B6904
:10315000934206D3F86800F028F902467B6993424F
:1031600004D9F86800F021F9034600E07B691846AD
:103170001C37BD4690BD90B583B000AF7860396014
:103180007868FFF7BAF803461C683868FFF7B5F8A7
:1031900003461B68E31A9B1018460C37BD4690BDCA
:1031A00080B584B000AF786039603B68002B0BD0ED
:1031B0007B68FB603B68BB600022B968F86800F080
:1031C000F0F9034600BF00E0002318461037BD4663
:1031D00080BD90B587B002AFF860B9607A603B609F
:1031E0008DF800403B687A68B968F86800F0FEF82E
:1031F000034618461437BD4690BD90B585B000AF64
:10320000F860B9607A603B60F86800F001F9044644
:10321000B86800F0FDF801463B687A68204600F087
:1032200006F9034618461437BD4690BD80B483B0F6
:1032300000AF78607B6818460C37BD465DF8047BAC
:10324000704780B586B000AFF860B9607A603B60C7
:10325000BA68FB68D31A7B617B69002B05DD7B694B
:103260001A46F96878680CF02BFC7B697A6813447D
:1032700018461837BD4680BD80B584B000AFF860F1
:10328000B9607A607A68B968F86800F0E1F80346D6
:1032900018461037BD4680BD90B585B000AFF860C8
:1032A000B9607A60F86800F0EBF80446B86800F09E
:1032B000E7F803467A681946204600F0ECF8034622
:1032C00018461437BD4690BD80B584B000AFF86095
:1032D000B9607A607A68B968F86800F0FFF8034668
:1032E00018461037BD4680BD80B483B000AF78600B
:1032F00039603B6818460C37BD465DF8047B704763
:1033000080B582B000AF78603B1D1846FFF710F81B
:1033100003461B6818460837BD4680BD80B584B09B
:1033200000AFF860B9607A607A68B968F86800F050
:10333000E5F8034618461037BD4680BD80B582B01B
:1033400000AF786039607868FFF7DAFF02463B68C3
:103350009A1A3B1D11461846FFF719F803461846FE
:103360000837BD4680BD80B483B000AF7860396057
:103370007B681A683B681A447B681A607B68184649
:103380000C37BD465DF8047B704780B584B000AF54
:10339000F860B9607A607A68B968F86800F0BEF8D9
:1033A000034618461037BD4680BD80B582B000AFD9
:1033B00078607B68184600F0E9F80346184600F08C
:1033C000C5F8034618460837BD4680BD80B483B0B3
:1033D00000AF78607B685A687B681B68D31A9B10C3
:1033E00018460C37BD465DF8047B704780B584B045
:1033F00000AFF860B9607A603B603B687A68B96892
:10340000F86800F0F7F8034618461037BD4680BD4F
:1034100080B584B000AF786007F10C037968184676
:1034200000F005F9FB6818461037BD4680BD80B531
:1034300084B000AFF860B9607A603B607A68B968C0
:10344000F86800F006F9034618461037BD4680BDFF
:1034500090B585B000AFF860B9607A60F86800F0A8
:103460000CF90446B86800F008F903467A68194672
:10347000204600F013F9034618461437BD4690BDA8
:1034800080B483B000AF78607B6818460C37BD46C7
:103490005DF8047B7047B0B584B000AFF860B960E8
:1034A0007A60F86800F01DF90446B86800F019F970
:1034B00005467B681846FFF7B9FE03461A462946BB
:1034C000204600F01CF902463B1D11461846FFF746
:1034D0000BFF034618461037BD46B0BD80B584B01B
:1034E00000AFF860B9607A607A68B968F86800F08F
:1034F00016F9034618461037BD4680BD80B584B026
:1035000000AFF860B9607A607A68B968F86800F06E
:1035100033F9034618461037BD4680BD90B585B0D7
:1035200000AFF860B9607A60F868FFF78FFD044675
:10353000B868FFF78BFD03467A681946204600F00D
:1035400042F9034618461437BD4690BD80B588B091
:1035500000AF78606FF060433B617B68FB61FB69A3
:10356000BB61BB697B616FF0604300BF00BFFB6064
:1035700007F10C0207F1100311461846FFF773FC20
:1035800003461B6818462037BD4680BD80B483B013
:1035900000AF78607B6818460C37BD465DF8047B49
:1035A000704780B586B000AFF860B9607A60FB689C
:1035B0007B616FF06042BB6893428CBF01230023A4
:1035C000DBB2002B14BF01230023DBB2002B07D09A
:1035D000BB68B3F1804F01D30BF0D7FE0BF0D2FEE6
:1035E000BB689B0018460BF001FC034618461837D1
:1035F000BD4680BDB0B584B000AFF860B9607A60F8
:103600003B60F86800F002F90446B86800F0FEF884
:103610000546786800F0FAF802463B6829462046DD
:1036200000F0FFF8034618461037BD46B0BD80B520
:1036300082B000AF786039603B46184600F00FF961
:1036400003461A687B681A607B6818460837BD46CF
:1036500080BD80B586B000AFF860B9607A600123A4
:10366000FB750123BB757A68B968F86800F002F948
:10367000034618461837BD4680BD80B582B000AFFE
:1036800078603B1D184600F005F903461846FFF721
:10369000AFFC034618460837BD4680BDB0B584B0C0
:1036A00000AFF860B9607A60F868FFF7BFFD0446C4
:1036B000B868FFF7BBFD05467B681846FFF7B6FD07
:1036C00003461A462946204600F0F0F802463B1D04
:1036D00011461846FFF708FE034618461037BD4648
:1036E000B0BD80B582B000AF78603B1D1846FFF7D3
:1036F0002DFA03461B6818460837BD4680BD80B5C5
:1037000084B000AFF860B9607A607A68B968F86828
:1037100000F0DCF8034618461037BD4680BD80B582
:1037200086B000AFF860B9607A60BA68FB68D31AF7
:103730007B617B69012BCCBF01230023DBB2002B13
:1037400009D07B695B427A6813447A69F968184644
:103750000CF0B6F908E07B69012B05D17B68013BD1
:10376000F968184600F0C2F87B695B427A68134436
:1037700018461837BD4680BD80B586B000AFF860EA
:10378000B9607A60BA68FB68D31A7B617B69012BE8
:10379000CCBF01230023DBB2002B06D07B691A4685
:1037A000F96878680CF08CF906E07B69012B03D18D
:1037B000F968786800F0AAF87B697A6813441846BB
:1037C0001837BD4680BDB0B584B000AFF860B960B1
:1037D0007A60F868FFF794FD0446B868FFF790FD3B
:1037E00005467B681846FFF721FD03461A46294621
:1037F0002046FFF793FD02463B1D11461846FFF792
:1038000073FD034618461037BD46B0BD80B483B083
:1038100000AF78607B6818460C37BD465DF8047BC6
:10382000704780B586B000AFF860B9607A603B60E1
:10383000BA68FB68D31A9B107B617B69002B06DD9D
:103840007B699B001A46F96878680CF039F97B6946
:103850009B007A68134418461837BD4680BD80B473
:1038600083B000AF78607B6818460C37BD465DF8C2
:10387000047B704780B584B000AFF860B9607A60AF
:103880007A68B968F86800F050F8034618461037AF
:10389000BD4680BD80B483B000AF78607B681B6894
:1038A00018460C37BD465DF8047B704780B584B080
:1038B00000AFF860B9607A607A68B968F86800F0BB
:1038C0004CF8034618461037BD4680BD80B584B01D
:1038D00000AFF860B9607A607A68B968F86800F09B
:1038E0004CF8034618461037BD4680BD80B582B0FF
:1038F00000AF786039603868FEF73AFB03461A7803
:103900007B681A7000BF0837BD4680BD80B483B0A5
:1039100000AF786039603B681A787B681A7000BF26
:103920000C37BD465DF8047B704790B585B000AF9D
:10393000F860B9607A60F86800F046F80446B86844
:1039400000F042F803467A681946204600F04DF828
:10395000034618461437BD4690BD80B584B000AF0D
:10396000F860B9607A607A68B968F86800F060F861
:10397000034618461037BD4680BD80B586B000AFFF
:10398000F860B9607A60BA68FB68D31A7B617B69BA
:10399000012BCCBF01230023DBB2002B06D07B69B7
:1039A0001A46F96878680CF08BF806E07B69012B01
:1039B00003D1F968786800F062F87B697A6813448B
:1039C00018461837BD4680BD80B582B000AF78601C
:1039D0003B1D184600F062F80346184600F06AF8EE
:1039E000034618460837BD4680BDB0B584B000AF69
:1039F000F860B9607A60F868FFF708FF0446B868B5
:103A0000FFF704FF05467B681846FFF7FFFE0346F5
:103A10001A462946204600F058F802463B1D11463A
:103A2000184600F062F8034618461037BD46B0BD90
:103A300080B586B000AFF860B9607A60BA68FB689C
:103A4000D31A7B617B69012BCCBF01230023DBB23E
:103A5000002B06D07B691A46F96878680CF030F8BC
:103A600006E07B69012B03D1F9687868FFF73EFF18
:103A70007B697A68134418461837BD4680BD80B408
:103A800083B000AF786039603B681A787B681A7041
:103A900000BF0C37BD465DF8047B704780B483B02F
:103AA00000AF78607B681B6818460C37BD465DF830
:103AB000047B704780B483B000AF78607B681846A1
:103AC0000C37BD465DF8047B704780B584B000AF0D
:103AD000F860B9607A607A68B968F86800F011F83F
:103AE000034618461037BD4680BD80B483B000AF92
:103AF000786039603B6818460C37BD465DF8047B3A
:103B0000704780B584B000AFF860B9607A607A68B9
:103B1000B968F86800F005F8034618461037BD4646
:103B200080BD80B586B000AFF860B9607A60BA68D1
:103B3000FB68D31A9B107B617B69012BCCBF0123EF
:103B40000023DBB2002B07D07B699B001A46F96883
:103B500078680BF0B5FF06E07B69012B03D1F968AB
:103B6000786800F008F87B699B007A68134418466F
:103B70001837BD4680BD80B582B000AF786039602F
:103B80003868FEF741FD03461A687B681A6000BF7B
:103B90000837BD4680BD000080B582B000AF7860B8
:103BA0000F4A7B681A600F4A7B685A607B6848330B
:103BB0001846FDF7A8FF7B683C331846FDF795FED5
:103BC0007B6830331846FDF790FE7B682433184637
:103BD000FDF78BFE7B6818460837BD4680BD00BFE9
:103BE000500701086407010880B500AF1048FDF7D1
:103BF0008DF9104A10490E480BF07EF80F48FEF779
:103C0000D9F80C4A0E490D480BF076F80D48FCF730
:103C10006CFE0C490C48FDF717FC0B490B48FDF7EF
:103C20008BFA044A0A4909480BF066F800BF80BDC8
:103C3000C402002400000024590F000800030024DF
:103C4000553C0008300700243407002448080024AD
:103C5000993B000880B582B000AF7860054A7B6868
:103C60001A607B681846FEF72FFD7B6818460837F8
:103C7000BD4680BDBC06010880B582B000AF78604B
:103C80007868FFF7E7FF40F2144178680BF0ACF872
:103C90007B6818460837BD4680BD80B582B000AF4E
:103CA00078607B680833184600F06BFC03469BB2D3
:103CB00018460837BD4680BD80B582B000AF786039
:103CC0007B680833184600F067FC03469BB2184631
:103CD0000837BD4680BD80B582B000AF78600B4626
:103CE000FB707B680833FA781146184600F05FFCD9
:103CF00000BF0837BD4680BD80B584B000AFF86016
:103D0000B9607A60FB70FB6803F10800FB787A68A1
:103D1000B96800F06FFC00BF1037BD4680BD80B5AC
:103D20008AB000AFF860B9607A603B603A68BB68FF
:103D3000D31A002BB8BF5B423B623A6B7B68D31A45
:103D4000002BB8BF5B42FB61BA683B689A4201D264
:103D5000012301E04FF0FF33BB617A683B6B9A426D
:103D600001D2012301E04FF0FF337B613A6AFB6926
:103D7000D31A7B6297F834303A6B3968F868FFF7EA
:103D8000BBFF22E097F834307A68B968F868FFF72B
:103D9000B3FF7B6A5B003B61FB695B423A699A4215
:103DA00007DD7A6AFB69D31A7B62BB69BA68134480
:103DB000BB603A693B6A9A4207DA7A6A3B6A134403
:103DC0007B627B697A6813447B60BA683B689A427D
:103DD000D8D17A683B6B9A42D4D100BF00BF283754
:103DE000BD4680BD80B588B002AFF860B9607A602A
:103DF0003B6097F82830002B1BD0BB687B6113E039
:103E00007B683B6109E097F824303A697969F86882
:103E1000FFF772FF3B6901333B613A693B6A9A42A3
:103E2000F1D97B6901337B617A693B689A42E7D9B2
:103E30002BE0F86897F8243001937B6800933B6887
:103E40007A68B968FFF76BFFF86897F82430019338
:103E50003B6A00933B687A683968FFF760FFF8684F
:103E600097F8243001933B6A0093BB683A6A39683B
:103E7000FFF755FFF86897F8243001937B680093AB
:103E8000BB683A6AB968FFF74AFF00BF1837BD46FA
:103E900080BD00000000000080B598B000AFF86061
:103EA000B9607A603B60012387F84C3097F84C305A
:103EB00087F84D3097F84D3087F84E3097F84E30F0
:103EC00087F84F30002387F84B30FB6E002B06DA63
:103ED000BA6EFB6E1344BB66FB6E5B42FB66BB6E49
:103EE00007EE903AB8EEE77B9FEDDB6B27EE066BB3
:103EF0009FEDDB5B86EE057BF7EEC77BC7ED117AA6
:103F0000BA6EFB6E134407EE903AB8EEE77B9FED76
:103F1000D26B27EE066B9FEDD25B86EE057BF7EE4C
:103F2000C77BC7ED107A97ED110AFCF75DFCB0EE88
:103F3000407A3B6807EE903AF8EE677A67EE277AA8
:103F4000C7ED0F7A97ED110AFCF75EFCF0EE407AB0
:103F5000B1EE677A3B6807EE903AF8EE677A67EE63
:103F6000277AC7ED0E7A97ED100AFCF73DFCB0EE0C
:103F7000407A3B6807EE903AF8EE677A67EE277A68
:103F8000C7ED0D7A97ED100AFCF73EFCF0EE407A93
:103F9000B1EE677A3B6807EE903AF8EE677A67EE23
:103FA000277AC7ED0C7A97ED0D7AD7ED0F7A37EEB9
:103FB000677AD7ED0D6AD7ED0F7A76EEE77A27EEBE
:103FC000277AD7ED0C6AD7ED0E7A76EEE76A97ED91
:103FD0000C6AD7ED0E7A76EE677A66EEA77A77EE00
:103FE000277AB0EE007AF4EEC77AF1EE10FA06D531
:103FF000FB6EB42B40F3BE81012387F84B303B6846
:104000005B42FB650023BB653B68C3F101035B00BA
:104010007B6597F84B3083F00103DBB2002B00F097
:104020004181BB6D07EE903AF8EEE77A97ED0F7A93
:1040300067EE277AC7ED0B7AFB6D07EE903AF8EE44
:10404000E77A97ED0E7A67EE277AC7ED0A7ABB6DAD
:104050005B4207EE903AF8EEE77A97ED0F7A67EE5B
:10406000277AC7ED097AFB6D5B4207EE903AF8EECE
:10407000E77A97ED0E7A67EE277AC7ED087ABB6D7F
:1040800007EE903AF8EEE77A97ED0D7A67EE277A29
:10409000C7ED077AFB6D07EE903AF8EEE77A97EDF9
:1040A0000C7A67EE277AC7ED067ABB6D5B4207EEA6
:1040B000903AF8EEE77A97ED0D7A67EE277AC7ED3A
:1040C000057AFB6D5B4207EE903AF8EEE77A97EDE2
:1040D0000C7A67EE277AC7ED047AFB6EB42B6CDDA1
:1040E00097ED0B7AD7ED087A77EE677AF5EEC07A1E
:1040F000F1EE10FA0AD497ED077AD7ED047A77EE4D
:10410000677AF5EEC07AF1EE10FA01DD012300E0E6
:10411000002387F84F3097ED0B7AD7ED0A7A77EEC8
:10412000677AF5EEC07AF1EE10FA0AD497ED077AC5
:10413000D7ED067A77EE677AF5EEC07AF1EE10FAEF
:1041400001DD012300E0002387F84E3097ED097A66
:10415000D7ED0A7A77EE677AF5EEC07AF1EE10FACB
:104160000AD497ED057AD7ED067A77EE677AF5EE01
:10417000C07AF1EE10FA01DD012300E0002387F898
:104180004D3097ED097AD7ED087A77EE677AF5EE3C
:10419000C07AF1EE10FA0AD497ED057AD7ED047AD9
:1041A00077EE677AF5EEC07AF1EE10FA01DD0123C1
:1041B00000E0002387F84C3074E097ED0B7AD7EDE0
:1041C000087A77EE677AF5EEC07AF1EE10FA0CD540
:1041D00097ED077AD7ED047A77EE677AF5EEC07A35
:1041E000F1EE10FA01DD012300E0002387F84F30E3
:1041F00097ED0B7AD7ED0A7A77EE677AF5EEC07A0B
:10420000F1EE10FA0CD597ED077AD7ED067A77EE36
:10421000677AF5EEC07AF1EE10FA01DD012300E0D5
:10422000002387F84E3097ED097AD7ED0A7A77EEBA
:10423000677AF5EEC07AF1EE10FA15D597ED057AAA
:10424000D7ED067A77EE677AF5EEC07AF1EE10FADE
:104250000ADD012309E000BF7A008BFCFA21094046
:104260000000000000806640002387F84D3097ED85
:10427000097AD7ED087A77EE677AF5EEC07AF1EE33
:1042800010FA0CD597ED057AD7ED047A77EE677AB8
:10429000F5EEC07AF1EE10FA01DD012300E0002313
:1042A00087F84C3097F84F30002B0AD0FB6DBA6876
:1042B000D11ABA6D7B681A4497F87030F868FFF726
:1042C0001BFD97F84E30002B0AD0FA6DBB68D11851
:1042D000BA6D7B681A4497F87030F868FFF70CFDE8
:1042E00097F84D30002B0AD0FA6DBB68D118BB6D22
:1042F0007A68D21A97F87030F868FFF7FDFC97F8E3
:104300004C30002B0AD0FB6DBA68D11ABB6D7A68AD
:10431000D21A97F87030F868FFF7EEFC7B6D3B65BA
:104320003A6DBB6D9A4213DCBB6D0133BB65BB6D4F
:104330005B0001337A6D13447B65FB6D5B42BA6DA4
:104340009A4205D13A6DFB6D9A4201DC00233B6530
:104350003A6DFB6D9A4208DDFB6D0133FB65FB6D29
:104360005B0001337A6D13447B65FB6D002B7FF797
:1043700050AE00E000BF6037BD4680BD80B588B05C
:1043800000AFF8600846394681E80C000346FB722E
:10439000FB7A1F2B02D9FB7A7E2B01D900237FE009
:1043A000FA68FB681B680C331B6810469847034685
:1043B0001A46FB689B8819463B780B449A420FDBF0
:1043C000FA68FB681B6808331B6810469847034669
:1043D0001A46FB68DB8819467B780B449A4201DA5F
:1043E000012300E00023002B01D0002358E000232C
:1043F000FB6144E07A68FB7A203B797801FB03F3A8
:104400001946FB690B445B0013441B887B61002346
:10441000BB612CE07A69BB6902FA03F303F4004341
:10442000002B0FD0FB689B881A46BB69D118FB682C
:10443000DB881A46FB691A4497F82830F868FFF7BA
:104440005BFC11E0FB689B881A46BB69D118FB68CE
:10445000DB881A46FB691A4497F8283083F0010379
:10446000DBB2F868FFF748FCBB690133BB613B78FE
:104470001A46BB699342CDD3FB690133FB617B785C
:104480001A46FB699342B5D3F868FB689B883A7873
:10449000134499B2FB68DB881A46FCF7FBFCFB7AF5
:1044A00018462037BD4680BD80B586B002AFF860A3
:1044B000B960394681E80C0019E0F868BB681978E2
:1044C0003B7E00933B460CCBFFF758FF03461A4652
:1044D000BB681B789A4214BF01230023DBB2002B78
:1044E00002D0BB681B7808E0BB680133BB60BB68C7
:1044F0001B78002BE1D1BB681B7818461037BD46EE
:1045000080BDB0B588B002AFF860B9607A603B603A
:1045100007F110003B687A68B96800F0B9F8F868EC
:1045200007F11001FB6ABA6AFCF704FBBC68F86883
:10453000FCF787FA03469DB2F868FCF78FFA03464A
:104540009BB21A4629462046FCF7A4FCB8683B6893
:1045500097F8302000920CCB7968FFF7A5FF00BFD9
:10456000F8681837BD46B0BD80B582B000AF78603E
:104570007B680833184600F0ABF800BF0837BD462B
:1045800080BD80B483B000AF7860402318460C37FC
:10459000BD465DF8047B704780B483B000AF78609F
:1045A000802318460C37BD465DF8047B704780B405
:1045B00085B000AF78600B46FB700023FB600EE017
:1045C000FB78002B01D0FF2100E000217A68FB6816
:1045D00013440C330A461A70FB680133FB60FB6816
:1045E000B3F5806FECD300BF00BF1437BD465DF854
:1045F000047B704780B485B000AFF860B9607A6022
:10460000FB70BB687F2B3DD87B683F2B3AD8FB788B
:10461000002B1AD07B68DB08D901BA680A44F96814
:104620000A44127B51B27A6802F00702012000FAB4
:1046300002F252B20A4351B2DA01BB681344C9B262
:10464000FA6813440A461A731DE07B68DB08D90137
:10465000BA680A44F9680A44127B51B27A6802F0D7
:104660000702012000FA02F252B2D24352B20A40CB
:1046700051B2DA01BB681344C9B2FA6813440A465E
:104680001A7300E000BF1437BD465DF8047B704725
:1046900080B586B000AFF860B9607A603B60796839
:1046A000B86800F048F878613B681B781A467B6967
:1046B0009BB212FB03F39BB219B23B685B781BB24F
:1046C0001A46F868FCF766F9F8681837BD4680BDE9
:1046D00080B584B000AF78601023BB7300BF0023A7
:1046E000FB7320E07A68FB7B503BDBB21946104637
:1046F000FCF74FFC7B6800211846FCF74AFC7B68FE
:10470000BA7B11461846FCF744FC7868FB7BDB015A
:1047100008337A681344043380221946FCF74FFCAF
:10472000FB7B0133FB73FB7B072BDBD900BF00BF97
:104730001037BD4680BD80B485B000AF7860396069
:104740000023FB6002E0FB680133FB603B685A1CFE
:104750003A601B78002B14BF01230023DBB2002B2F
:10476000F1D1FB6818461437BD465DF8047B7047ED
:1047700080B500AFFFF738FA80BD00000B49012378
:104780000B4A038280F8273080F82B3010B4C0E940
:104790000112084C40F2027140F60662C460A0F8B3
:1047A00025105DF8044BA0F829207047050805097D
:1047B00005070506050A06061F2882B009D8084B1A
:1047C00003EB400213F81030507843EA002002B0A7
:1047D000704701230C2043EA002002B0704700BF5D
:1047E000AC090108F0B5032399B00125002706465E
:1047F00009A80E97CDE912352A4B0F9340F20453C6
:10480000ADF84030284BCDE91475099300F054FB06
:1048100009A800F02FFC002835D1244B04AF044632
:104820000790CDF842301023394600908DF82030A3
:104830001F4B049505930695CDE91650684600F088
:10484000A1FD0823009A01A909A8ADF804508DF82C
:10485000064009940295039300F0B8F800230EA9CE
:1048600038463024049301F00FFB03224FF07E53AF
:1048700009A906F114000B93CDE90942049A00F04E
:10488000D9FA19B0F0BD40F60132084B169704AFC3
:10489000ADF824200998CDF84230179500F058F86B
:1048A000DCE700BF04020404030300010406040360
:1048B0000704010B30B540F20112002304462DED30
:1048C000028B83B00091ADF804208DF8063003F020
:1048D000D3F968BB694604F1300003F035F9211DB6
:1048E000204600F07DFF04F1250000F0E5FA04F118
:1048F000290000F0E1FA04F1120000F089F904F156
:1049000014052046FFF76EFF284600F0C9FA284636
:10491000B0EE408A00F0C0FAD0ED007AF8EE677A87
:1049200088EE277A84ED0E7A03B0BDEC028B30BDA1
:1049300005460123694604F130008DF8063003F086
:1049400003F9072DDBD0211D204600F049FFD6E7F3
:1049500010B584B00346012403A8ADF80C30ADF8BF
:104960000E4000F0A9FA214603A800F091FB204672
:1049700003F024F8002103A800F08AFB204603F08E
:104980001DF8214603A800F083FB04B010BD00BF52
:1049900010B5C2F3002384B00C46017C8DF80D20C5
:1049A00043EA4402FA2402238DF80C2003AA00945F
:1049B00000F078FD18B10124204604B010BD044673
:1049C0000A2002F0FBFF204604B010BD034670B57C
:1049D00043F8042B044684B0FA2507C983E807008E
:1049E000A1791E23009503AA1A31ADF80C30204698
:1049F0000223C9B2217400F055FD10B1012004B0AA
:104A000070BD0A2002F0DAFF4FF4B852009502237D
:104A1000ADF80C20204603AA217C00F043FD0028BD
:104A2000ECD10A2002F0CAFF41F202720095022383
:104A3000ADF80C20204603AA217C00F033FD0028AD
:104A4000DCD10A2002F0BAFF042200950223ADF85F
:104A50000C20204603AA217C00F024FD0028CDD1A3
:104A60000A2002F0ABFF062200950223ADF80C20CD
:104A7000204603AA217C00F015FD0028BED10A20A3
:104A800002F09CFF41F2082200950223ADF80C20B1
:104A9000204603AA217C00F005FD0028AED10A20A3
:104AA0000A2602F08BFF0095022303AA217C2046F0
:104AB000ADF80C6000F0F6FC00289FD1304602F003
:104AC0007DFF23790C220095002B217C8DF80C2092
:104AD000204614BF622342236A448DF80D3002231E
:104AE00000F0E0FC002889D1304602F067FFA3689F
:104AF00000952046E268217C13432279DBB282F0E4
:104B0000010243EA82136279524202F02002134307
:104B10000E228DF80D3002238DF80C2003AA00F030
:104B2000C1FC00287FF46AAF304602F047FF102234
:104B300000950223ADF80C20204603AA217C00F04A
:104B4000B1FC00287FF45AAF304602F037FF122143
:104B500000950223ADF80C1003AA217C204600F03A
:104B6000A1FC00287FF44AAF304602F027FF012263
:104B700009212046FFF70CFF003818BF01203EE74F
:104B8000F0B5214D87B000240126102702A94FF46B
:104B9000805228460194CDE90267CDE9046407F00C
:104BA00033FE642003F020FA022302A94FF480525E
:104BB000284602930594CDE9037607F025FE0423E9
:104BC00002A94FF4805228460397CDE90434032309
:104BD000029307F019FE40F23223042202A928466C
:104BE000019310230496CDE90223019B4FF48052D8
:104BF000059307F009FE40F60601284607F024FE5B
:104C0000204607B0F0BD00BFAC0800240000000043
:104C100070B51F4B88B008221E4E00214FF400646F
:104C20001A614FF0020C03920A225E60202606925F
:104C30004022054699600320196210215C6201241C
:104C4000C3E905624FF4C072DC60DA6107229FEDB0
:104C50000E7BCDE900C20422CDE904016946181D8E
:104C6000029283ED0A7B07F0A5FD38B92846FFF7CD
:104C700087FF003818BF012008B070BD204608B07B
:104C800070BD00BFAFF30080001000000000000006
:104C9000A8080024404100525E4A0023F0B5146881
:104CA0008FB00A93002C40F0B2805B4B01210326A9
:104CB0000C2511600227D3F8D420584842F48052C2
:104CC000C3F8D420D3F8D42002F480520092009A82
:104CD000D3F8E02042F01002C3F8E020D3F8E0203F
:104CE00002F010020192019AD3F8E02042F0400253
:104CF000C3F8E020D3F8E02002F040020292029ACA
:104D0000D3F8E02042F00802C3F8E020D3F8E02016
:104D100002F008020392039AD3F8E02042F4807272
:104D2000C3F8E020D3F8E02002F480720492049AE1
:104D3000D3F8E02042F08002C3F8E020D3F8E0206E
:104D400002F080020592059AD3F8E02042F020029A
:104D5000C3F8E020D3F8E02002F020020692069A81
:104D6000D3F8E02042F00402C3F8E0204FF683724B
:104D7000D3F8E0300B9603F004030C95079302235D
:104D8000079908A9CDE9082304F0B0F848F23713D1
:104D900008A9234808930C950997CDE90A4604F021
:104DA000A5F84CF2037308A91E480893CDE90974CD
:104DB000CDE90B6504F09AF840F2FF6308A91A48A0
:104DC0000893CDE90974CDE90B6504F08FF84FF62F
:104DD0000C7308A915480893CDE90974CDE90B6552
:104DE00004F084F84FF63F0308A911480893CDE971
:104DF0000974CDE90B6504F079F8202308A90B4864
:104E000009970C950893CDE90A4604F06FF80FB0A6
:104E1000F0BD00BFA0080024004402580010025852
:104E200000180258000C025800200258001C0258BA
:104E30000014025830B5154C154685B0046004F1D5
:104E4000080C01AB07C98CE80700D4ED047AF5EE35
:104E5000C07A83E80700F1EE10FA14DDF7EE006A7D
:104E600086EEA77A84ED0B7A6DB1204640F8145F88
:104E700001F00CF9064903690020064AE16162620B
:104E8000E36005B030BD012005B030BDE00800246E
:104E9000002000300000003000680830704700BF7C
:104EA0000068143001F0F4B8024B0022C3E9052277
:104EB000704700BFE008002430B583788FB0044607
:104EC000022B39D0032B00F0D180A3F10102B2FAFA
:104ED00082F25209E3780A92012B05D0A3F1020372
:104EE000B3FA83F35B095B0000222046CDE90B3265
:104EF00002F058FF0546204602F05CFF2378099037
:104F0000082B13D8DFE803F02D405366798C9F05FA
:104F10001A00574BD3F8E02042F08002C3F8E0209B
:104F2000D3F8E03003F080030793079B09A92846D4
:104F300003F0DCFF0FB030BD1122CBE74C4B09A9C9
:104F40002846D3F8E02042F48072C3F8E020D3F87A
:104F5000E03003F480730893089B03F0C7FF0FB0A1
:104F600030BD434B09A92846D3F8E02042F00102A6
:104F7000C3F8E020D3F8E03003F001030093009B76
:104F800003F0B4FF0FB030BD394B09A92846D3F860
:104F9000E02042F00202C3F8E020D3F8E03003F052
:104FA00002030193019B03F0A1FF0FB030BD304B12
:104FB00009A92846D3F8E02042F00402C3F8E02013
:104FC000D3F8E03003F004030293029B03F08EFF5A
:104FD0000FB030BD264B09A92846D3F8E02042F097
:104FE0000802C3F8E020D3F8E03003F0080303938D
:104FF000039B03F07BFF0FB030BD1D4B09A9284672
:10500000D3F8E02042F01002C3F8E020D3F8E030FB
:1050100003F010030493049B03F068FF0FB030BD4E
:10502000134B09A92846D3F8E02042F02002C3F828
:10503000E020D3F8E03003F020030593059B03F054
:1050400055FF0FB030BD0A4B09A92846D3F8E02020
:1050500042F04002C3F8E020D3F8E03003F0400310
:105060000693069B03F042FF0FB030BD1A4631E7AE
:105070000044025838B5054602F094FE044628461E
:1050800002F098FE01462046BDE8384004F068BAB8
:1050900070B506460D4602F085FE0446304602F025
:1050A00089FE2A1E0146204618BF0122BDE8704035
:1050B00004F05CBA70B5002386B012220446039354
:1050C000CDE901230368032B01D804230493261D93
:1050D0000634304602F066FE0546304602F06AFEAF
:1050E000034669462846009303F000FF204602F07D
:1050F00059FE034620461C4602F05CFE6946034604
:105100002046009303F0F2FE06B070BD634A0368C8
:10511000934210B58CB028D0614A934258D0614A6E
:10512000934200F09480604A934201D00CB010BDCD
:105130005E4C5F48D4F8E03043F00203C4F8E0303E
:10514000D4F8E03003F002030A930A9BFFF7B2FFA2
:10515000D4F8F43043F08003C4F8F430D4F8F430D9
:1051600003F080030B930B9BE0E7504C5148D4F8BD
:10517000E03043F00203C4F8E030D4F8E03003F04C
:1051800002030193019BFFF795FFD4F8E83000225A
:105190001F2043F400131146C4F8E830D4F8E83077
:1051A00003F400130293029BD4F8D83043F00103B8
:1051B000C4F8D830D4F8D83003F001030393039B2C
:1051C00002F03CFF1F200CB0BDE8104002F072BF9F
:1051D000364C3948D4F8E03043F08003C4F8E0306E
:1051E000D4F8E03003F080030493049BD4F8E0305B
:1051F00043F00203C4F8E030D4F8E03003F00203D7
:105200000593059BFFF756FFD4F8E83000222120D4
:1052100043F480031146C4F8E830D4F8E83003F4CE
:1052200080030693069BD4F8D83043F00103C4F8FA
:10523000D830D4F8D83003F001030793079B02F06D
:10524000FDFE21200CB0BDE8104002F033BF1B482A
:10525000FFF730FF154B00224820D3F8E8401146F5
:1052600044F40004C3F8E840D3F8E84004F4000430
:105270000894089CD3F8D84044F00104C3F8D840FF
:10528000D3F8D83003F001030993099B02F0D6FE4E
:1052900048200CB0BDE8104002F00CBF00540040A4
:1052A00000580040005C0040001C005800440258B8
:1052B0009C0B002414090024EC090024C40A0024D7
:1052C000F0B5002287B0184B1021CDF802206F46B0
:1052D000CDF806209C46CDF80A206E46CDF80E206B
:1052E0000CF11805CDF812200CF1300EADF8162097
:1052F000FF220E4B6C46ADF800101A700FCFACE8D1
:105300000F0097E803008CE803000FCE0FC596E866
:10531000030085E803000FCCAEE80F0094E803001B
:105320008EE8030007B0F0BD080000241009002437
:1053300010B5EFF3108472B6074B1A78120602D537
:1053400004B962B610BD1B78D820044A5BB200FBDA
:10535000032003F0B7FBF3E7100900242809002419
:10536000014804F0C1BB00BFA0090024014804F0BB
:10537000BBBB00BF780A0024014804F0B5BB00BFE6
:10538000500B00242DE9F0410F68D8253C4E84B025
:1053900007FB05F5032F06EB0503036058DCCA681D
:1053A0000C46012A54D84FD020689C4661684FF0C3
:1053B000D808A2680DF1100EE36808FB0768ACE896
:1053C0000F00304B227C8CF80020D8F808C00FCB9F
:1053D0000EE90F000EEB8703BCF1010F53F8103CF0
:1053E000C8F88C3042D0BCF1020F35D0BCF1000FB0
:1053F00008D102F03FFC244B98420CBF234B244BB6
:10540000C8F890308C35D823217C002203FB076339
:10541000012035444900C3E926022846C3F8941008
:10542000C3E92822C3E92A2204F056F980B90146CB
:10543000284604F065FB58B90146284604F08AFB6B
:10544000003818BF012004E00A7C103A672AABD963
:10545000012004B0BDE8F08102F00CFC0A4B984238
:105460000CBF0C4B0C4BC8F89030CBE702F002FCA1
:10547000054B98420CBF094B094BC8F89030C1E767
:105480001409002474060108000E27075F4390608A
:105490008A62E030200BA0101A0980102D0FB03066
:1054A0003211D0202DE9F041D0F8008082B00D46B5
:1054B00017461E4608F18C04204604F01DFB2028E8
:1054C000FAD1D8F80C3073B96D002046089C3346E9
:1054D0003A46A9B2009404F055F9003818BF0120EB
:1054E00002B0BDE8F081089B32463946204604F000
:1054F00015FAF2E7044B10221A7483F8E82083F8B7
:10550000C02183F8982270471409002430B5002385
:1055100095B04FF48071062204460B9306921393C4
:10552000CDE90C13CDE90E33CDE9113302F0A4FB24
:1055300007282AD004F1100541F2883206A928462E
:1055400004F0B2FC28B1012384F85C30012015B0CE
:1055500030BD0223102206A9284602920022CDE97E
:105560000033012303934FF48003CDE90423052284
:105570004FF0807306926A460F9341F2883304F02D
:1055800023FE0028DFD115B030BD032384F85C3042
:10559000DCE700BF0000000070B50023A4B04FF0AE
:1055A00080724FF480750446ADF806301B93CDE948
:1055B0001E320122CDE91C53CDE92023CDE922334F
:1055C000002942D0F02300F1100516AEADF80630E8
:1055D000C02341F2883231462846169304F064FC19
:1055E00028B1012384F85C30012024B070BD41F261
:1055F00088320DF10601284604F0C4FC0346002859
:10560000EFD14FF48071052228460125089210221F
:1056100010930D93159302930595CDE90E139FED0D
:105620001E7B4FF08071CDE91333119141F2883325
:1056300008A9CDE9035202AA8DED067B04F0C4FD52
:105640000028D2D084F85C50CEE700F1100516AEE9
:10565000612341F2883231462846169304F024FC37
:105660000028BED141F288320DF10601284604F02F
:1056700017FD0028B5D1BDF80630204623F0780389
:1056800043F04003ADF80630FFF740FF00289FD0FD
:10569000A7E700BFAFF3008000000000000040005B
:1056A0002DE9F04F00234FF4807601254FF08078EC
:1056B00004462DED028BABB08DF807302193139388
:1056C0001B9322961C95CDF89480CDE92333CDE928
:1056D0002653CDE92833CDE91463CDE91633CDE95E
:1056E000193306230E9302F0C7FA072808D004F1F5
:1056F000100741F288320EA9384604F0D5FB40B1BC
:10570000012384F85C3001202BB0BDEC028BBDE896
:10571000F08F02234FF010094FF0050A08AA0EA9D6
:1057200038460B95CDF85C80CDF82890CDF838A0A0
:105730009FED298BCDE9083341F288338DED0C8B39
:1057400004F042FD0028DBD141F2883238461CA922
:1057500004F0AAFB0028D3D14FF0400B41F288326D
:105760000DF1070138468DF807B004F00BFC002856
:10577000C6D141F288331CA902AA3846CDF870A0E0
:10578000CDF89480CDE902BBCDE904958DED068B73
:1057900004F01AFD03460028B2D1139308AA1B9304
:1057A0000EA938461496CDF838A0CDF85C80CDF817
:1057B00028900B95CDE91533CDE91933CDE908359E
:1057C00041F288338DED0C8B04F0FEFC00289BD059
:1057D00084F85C5097E700BF000000000000400024
:1057E0002DE9F0435C4CA3B00E46046002F044FA8D
:1057F000072800F0A480306825467168B26807C5A4
:10580000B389284620F8043B267B677B04F02EFBF7
:10581000E0B9524B012E4FF00108E06123610CBF4B
:105820004FF400034FF48013C4E9058893FAA3F3FF
:10583000B3FA83F34FF48079013BC4F82490C4E9B0
:105840000B00281D236204F0A3FA38B1012384F869
:105850005C300126304623B0BDE8F08366230B9010
:10586000139041F2883206A90693CDE90C90CDE958
:105870000E00CDE91100281D04F016FB0028E5D12B
:10588000992341F2883206A9281D069304F00CFBE7
:105890000028DBD105231C9019906A4614934FF021
:1058A0008073219014A91D931023CDF80C800293CE
:1058B00041F288339FED247BCDE91A90CDE91F009A
:1058C000CDE90008281D8DED047B04F07DFC002847
:1058D000BCD131462046FFF75FFE0028B6D12046F6
:1058E000FFF7DEFE06460028B0D1002FB2D1EB2331
:1058F00006AA14A9281D14934FF44063CDF86890AC
:105900001B934FF40053189617934FF440431C9386
:10591000A0231693062319934FF080539FED0C7B21
:1059200021934FF04073CDE91F661D938DED067BEB
:1059300004F0D8FC00288DD084F85C8089E703232C
:1059400084F85C3085E700BF0000000000004000E4
:105950000000000000000000780C002400500052FD
:105960002DE9F04F8FB0414B0024026800AF9A42FE
:105970007C63C7E90944C7E90B4403D03C37BD4603
:10598000BDE8F08F3A4B40F609213A48EA46D3F891
:10599000D42007F11C0607F1220B4FF0020942F454
:1059A00080424FF00308C3F8D420D3F8D42002F487
:1059B0008042BA60BA68D3F8E02042F04002C3F8EF
:1059C000E020D3F8E02002F04002FA60FA68D3F851
:1059D000E02042F02002C3F8E020D3F8E02002F0FB
:1059E00020023A613A69D3F8E02042F01002C3F88D
:1059F000E020D3F8E02002F010027A617A69D3F84F
:105A0000E02042F00202C3F8E020D3F8E030F86171
:105A100003F002033984BB61174B7B60BB697B6871
:105A200053F8040F7B6002F0BDF97B6805461868E7
:105A300002F0C0F916F8013B786207F1240128460C
:105A4000C7F830807B63C7E90A9403F04FFA5E45DC
:105A5000E5D100225C20114602F0F0FA5C2002F051
:105A600029FB3C37D546BD46BDE8F08F00500052BB
:105A7000004402580A0A0909D40C0024114B026898
:105A80009A4200D07047104A70B5D2F8D4300F4C0B
:105A900023F4804304F11806C2F8D43054F8040FFC
:105AA00002F080F90546206802F084F90146284694
:105AB00003F02AFCB442F1D15C20BDE8704002F052
:105AC00007BB00BF0050005200440258D40C002411
:105AD000014804F095BC00BF880C0024084B1A1D37
