:020000040800F2
:10000000000002209D070008E5070008418B00085A
:10001000E5070008E5070008E50700080000000004
:10002000000000000000000000000000E5070008DC
:10003000E507000800000000E5070008318B000814
:10004000E5070008E5070008E5070008E5070008E0
:10005000E5070008E5070008E5070008E5070008D0
:10006000E5070008E5070008E5070008E16F00085C
:10007000ED6F0008E5070008F96F0008057000083B
:1000800055880008B9640008E5070008E50700087E
:10009000E5070008E5070008E5070008E507000890
:1000A000E5070008E5070008E5070008E507000880
:1000B000E5070008E5070008E5070008E96400080F
:1000C000E5070008F5640008E50700085D7800080A
:1000D000E507000829820008D18200088183000812
:1000E000E5070008E507000800000000E507000834
:1000F000E5070008E5070008E5070008697800083B
:10010000E5070008E5070008E5070008E50700081F
:1001100031840008E1840008E5070008E5070008CD
:10012000E5070008E5070008E5070008E5070008FF
:10013000E5070008E5070008E5070008E5070008EF
:1001400000000000000000000000000000000000AF
:10015000E5070008E5070008E507000891850008A5
:1001600001650008E5070008E5070008E507000845
:10017000E5070008E5070008E5070008E5070008AF
:10018000E5070008E507000841860008F186000839
:10019000E5070008E5070008E5070008E50700088F
:1001A000E5070008E5070008E5070008E50700087F
:1001B000596C0008E5070008E5070008E507000896
:1001C000E5070008E5070008E5070008E50700085F
:1001D000E5070008E5070008E5070008E50700084F
:1001E000E5070008E5070008E5070008E50700083F
:1001F000E5070008E5070008E5070008E50700082F
:10020000E5070008E5070008E5070008E50700081E
:10021000E5070008E5070008E5070008E50700080E
:10022000E5070008E5070008E507000800000000F2
:10023000E5070008E507000800000000E5070008E2
:10024000E5070008E5070008E5070008E5070008DE
:10025000E5070008E5070008E5070008E5070008CE
:10026000E5070008E5070008E5070008E5070008BE
:10027000E5070008E5070008A18700080000000066
:10028000E5070008E5070008E50700080000000092
:0802900000000000E507000872
:1002A00001F0FF01102A2BDB10F0070F08D010F827
:1002B000013B013A8B422DD010F0070F42B3F6D12B
:1002C000F0B441EA012141EA014122F007047FF044
:1002D00000070023F0E80256083C85EA010586EA9B
:1002E000010685FA47F5A3FA87F586FA47F6A5FAD7
:1002F00087F68EB9EED1F0BC01F0FF0102F00702E3
:1003000032B110F8013B013A83EA010313B1F8D18D
:100310000020704701387047002D06BF354603386E
:10032000073815F0010F07D1013015F4807F02BFA7
:10033000013015F4C03F0130F0BC0138704700BFF8
:10034000034613F8012B002AFBD1181A0138704715
:1003500010F8012B11F8013B012A28BF9A42F7D06F
:10036000D01A704781F0004102E000BF83F00043E3
:1003700030B54FEA41044FEA430594EA050F08BF40
:1003800090EA020F1FBF54EA000C55EA020C7FEA04
:10039000645C7FEA655C00F0E2804FEA5454D4EB81
:1003A0005555B8BF6D420CDD2C4480EA020281EA4B
:1003B000030382EA000083EA010180EA020281EA83
:1003C0000303362D88BF30BD11F0004F4FEA0131D5
:1003D0004FF4801C4CEA113102D0404261EB4101E4
:1003E00013F0004F4FEA03334CEA133302D052426A
:1003F00063EB430394EA050F00F0A780A4F1010426
:10040000D5F1200E0DDB02FA0EFC22FA05F280185F
:1004100041F1000103FA0EF2801843FA05F3594145
:100420000EE0A5F120050EF1200E012A03FA0EFCC4
:1004300028BF4CF0020C43FA05F3C01851EBE371EE
:1004400001F0004507D54FF0000EDCF1000C7EEB0B
:1004500000006EEB0101B1F5801F1BD3B1F5001F49
:100460000CD349085FEA30004FEA3C0C04F1010468
:100470004FEA445212F5800F80F09A80BCF1004F91
:1004800008BF5FEA500C50F1000041EB045141EA13
:10049000050130BD5FEA4C0C404141EB0101013CDC
:1004A00028BFB1F5801FE9D291F0000F04BF0146CB
:1004B0000020B1FA81F308BF2033A3F10B03B3F19D
:1004C00020020CDA0C3208DD02F1140CC2F10C022D
:1004D00001FA0CF021FA02F10CE002F11402D8BF8B
:1004E000C2F1200C01FA02F120FA0CFCDCBF41EA57
:1004F0000C019040E41AA2BF01EB0451294330BD26
:100500006FEA04041F3C1CDA0C340EDC04F1140402
:10051000C4F1200220FA04F001FA02F340EA0300D9
:1005200021FA04F345EA030130BDC4F10C04C4F11F
:10053000200220FA02F001FA04F340EA03002946FF
:1005400030BD21FA04F0294630BD94F0000F83F449
:10055000801306BF81F480110134013D4EE77FEA2C
:10056000645C18BF7FEA655C29D094EA050F08BF78
:1005700090EA020F05D054EA000C04BF1946104659
:1005800030BD91EA030F1EBF0021002030BD5FEA9D
:10059000545C05D14000494128BF41F0004130BDC5
:1005A00014F580043CBF01F5801130BD01F0004519
:1005B00045F0FE4141F470014FF0000030BD7FEA8C
:1005C000645C1ABF194610467FEA655C1CBF0B4687
:1005D000024650EA013406BF52EA033591EA030F9E
:1005E00041F4002130BD00BF90F0000F04BF002196
:1005F000704730B54FF4806404F132044FF00005C9
:100600004FF0000150E700BF90F0000F04BF002141
:10061000704730B54FF4806404F1320410F00045A7
:1006200048BF40424FF000013EE700BF42004FEAA2
:10063000E2014FEA31014FEA02701FBF12F07F431F
:1006400093F07F4F81F06051704732F07F4208BFD6
:10065000704793F07F4F04BF41F40021704730B5DD
:100660004FF4607401F0004521F000411CE700BF29
:1006700050EA010208BF704730B54FF000050AE0AC
:1006800050EA010208BF704730B511F0004502D5AD
:10069000404261EB41014FF4806404F132045FEAAF
:1006A000915C3FF4D8AE4FF003025FEADC0C18BF58
:1006B00003325FEADC0C18BF033202EBDC02C2F14A
:1006C000200300FA03FC20FA02F001FA03FE40EADC
:1006D0000E0021FA02F11444BDE600BF53B94AB935
:1006E000002908BF00281CBF4FF0FF314FF0FF303A
:1006F00000F00CB8ADF1080C6DE904CE10F0CEFEA0
:10070000DDF804E0DDE9022304B07047704700BF64
:100710000348044B834202D0034B03B11847704790
:10072000AC020024AC020024000000000548064B87
:100730001B1AD90F01EBA301491002D0034B03B1DF
:1007400018477047AC020024AC02002400000000EF
:1007500010B5064C237843B9FFF7DAFF044B13B109
:100760000448AFF300800123237010BDB0020024C1
:1007700000000000D820010808B5054B1BB1054951
:100780000548AFF30080BDE80840FFF7CFBF00BFCA
:1007900000000000B4020024D82001080C4D0D4CCC
:1007A00003E02B682360043504340B4B9C42F8D1E2
:1007B0000A4C02E0002323600434094B9C42F9D127
:1007C00008F068FB10F0BCFA01F098F900BFFDE7F3
:1007D0000421010800000024AC020024B00200241F
:1007E0000430002400BFFDE780B582B000AF87ED84
:1007F000010A97ED010A10F01FF8F0EE407AB0EE12
:10080000670A0837BD4680BD80B582B000AF87ED6E
:10081000010A97ED010A0FF01FFFF0EE407AB0EEEB
:10082000670A0837BD4680BD80B483B000AF7860EA
:1008300039603B6818460C37BD465DF8047B70474D
:1008400080B483B000AF78607B68B3F5007F05D2D9
:100850004FF400727B68B2FBF3F300E0012318460B
:100860000C37BD465DF8047B704780B483B000AFA1
:1008700078607B6818460C37BD465DF8047B70478E
:1008800080B483B000AF78607B6818460C37BD46F3
:100890005DF8047B704780B483B000AF78607B68FC
:1008A00000221A607B6818460C37BD465DF8047B51
:1008B000704780B483B000AF78607B6800221A6014
:1008C0007B6818460C37BD465DF8047B704780B4E2
:1008D00083B000AF78607B6800221A607B6818469E
:1008E0000C37BD465DF8047B704780B483B000AF21
:1008F00078607B6818460C37BD465DF8047B70470E
:1009000080B483B000AF78607B6818460C37BD4672
:100910005DF8047B704780B483B000AF78607B687B
:1009200018460C37BD465DF8047B704780B483B031
:1009300000AF78607B6800221A607B6818460C372D
:10094000BD465DF8047B704780B483B000AF78602B
:100950007B6818460C37BD465DF8047B704780B451
:1009600083B000AF78607B6818460C37BD465DF8F1
:10097000047B704780B483B000AF78607B6800224E
:100980001A607B6818460C37BD465DF8047B7047DB
:1009900080B483B000AF78607B6800221A807B68E7
:1009A00000225A807B6800229A807B680022DA80CD
:1009B0007B6818460C37BD465DF8047B704780B5F0
:1009C00082B000AF78600B467B8013463B807B682B
:1009D00000221A807B6800225A80B7F902301A463A
:1009E0000021786800F020FA03461A467B689A8056
:1009F000B7F900301A460021786800F015FA03466E
:100A00001A467B68DA807B6818460837BD4680BD89
:100A100080B584B000AFF860084611461A46034618
:100A20007B810B463B811346FB80FB687A891A80E9
:100A3000FB683A895A80B7F906301A460021F868EF
:100A400000F0F2F903461A46FB689A80B7F91830AD
:100A50001A460021F86800F0E7F903461A46FB68D9
:100A6000DA80FB6818461037BD4680BD80B483B07D
:100A700000AF78607B68B3F9003018460C37BD468C
:100A80005DF8047B704780B483B000AF78607B680A
:100A9000B3F9023018460C37BD465DF8047B704749
:100AA00080B483B000AF78607B68B3F900309AB24D
:100AB0007B68B3F904309BB213449BB21BB2184657
:100AC0000C37BD465DF8047B704780B483B000AF3F
:100AD00078607B68B3F902309AB27B68B3F906306C
:100AE0009BB213449BB21BB218460C37BD465DF84F
:100AF000047B704780B483B000AF78607B68B3F943
:100B000000309AB27B68B3F90430002B00DA01336D
:100B10005B101BB29BB213449BB21BB218460C373E
:100B2000BD465DF8047B704780B483B000AF786049
:100B30007B68B3F902309AB27B68B3F90630002BB8
:100B400000DA01335B101BB29BB213449BB21BB2A1
:100B500018460C37BD465DF8047B7047F0B587B08A
:100B600002AFF860B9607A603B603B68082B00F226
:100B7000538101A252F823F0B30D00089D0B000829
:100B8000F70B0008C10B00083B0C0008BD0C000867
:100B9000730C0008150D00085B0D00087B68B3F9A5
:100BA00000107B68B3F90220BB68B3F90400BB688E
:100BB000B3F9063000930346F868FFF729FF2EE1EA
:100BC0007868FFF76DFF03469AB2BB68B3F904304B
:100BD0009BB2D31A9BB219B27B68B3F90220BB68EF
:100BE000B3F90400BB68B3F9063000930346F86814
:100BF000FFF70EFF13E1BB68B3F900309CB27868D1
:100C0000FFF778FF03469DB2B868FFF773FF03460E
:100C10009BB2EB1A9BB223449BB219B27B68B3F927
:100C20000220BB68B3F90400BB68B3F90630009337
:100C30000346F868FFF7ECFEF1E07B68B3F900408B
:100C40007868FFF742FF03469AB2BB68B3F90630F3
:100C50009BB2D31A9BB21AB2BB68B3F90410BB683B
:100C6000B3F9063000930B462146F868FFF7D0FE33
:100C7000D5E07868FFF714FF03469AB2BB68B3F972
:100C800004309BB2D31A9BB21CB27868FFF71DFFE9
:100C900003469AB2BB68B3F906309BB2D31A9BB233
:100CA0001AB2BB68B3F90410BB68B3F906300093FD
:100CB0000B462146F868FFF7ABFEB0E0BB68B3F91E
:100CC00000309CB27868FFF715FF03469DB2B86804
:100CD000FFF710FF03469BB2EB1A9BB223449BB273
:100CE0001CB27868FFF7F1FE03469AB2BB68B3F90D
:100CF00006309BB2D31A9BB21AB2BB68B3F9041088
:100D0000BB68B3F9063000930B462146F868FFF73D
:100D10007FFE84E07B68B3F90060BB68B3F9023002
:100D20009CB27868FFF700FF03469DB2B868FFF7F2
:100D3000FBFE03469BB2EB1A9BB223449BB21AB252
:100D4000BB68B3F90410BB68B3F9063000930B46D7
:100D50003146F868FFF75CFE61E07868FFF7A0FEB7
:100D600003469AB2BB68B3F904309BB2D31A9BB264
:100D70001EB2BB68B3F902309CB27868FFF7D4FEAC
:100D800003469DB2B868FFF7CFFE03469BB2EB1A4D
:100D90009BB223449BB21AB2BB68B3F90410BB6880
:100DA000B3F9063000930B463146F868FFF730FE82
:100DB00035E0BB68B3F900309CB27868FFF79AFE63
:100DC00003469DB2B868FFF795FE03469BB2EB1A47
:100DD0009BB223449BB21EB2BB68B3F902309CB2F3
:100DE0007868FFF7A1FE03469DB2B868FFF79CFE46
:100DF00003469BB2EB1A9BB223449BB21AB2BB6868
:100E0000B3F90410BB68B3F9063000930B463146C2
:100E1000F868FFF7FDFD02E0F868FFF7B9FDF86834
:100E20001437BD46F0BD00BF80B483B000AF78601A
:100E30000B467B8013463B80B7F90220B7F90030A0
:100E40009A4202DDB7F9023001E0B7F900301846E6
:100E50000C37BD465DF8047B7047000080B483B05A
:100E600000AF7860044A7B681A607B6818460C37CC
:100E7000BD465DF8047B70477C19010880B483B0DF
:100E800000AF7860044A7B681A607B6818460C37AC
:100E9000BD465DF8047B70477C19010880B582B0BF
:100EA00000AF78607868FFF7E9FF082178680FF0F5
:100EB0005FF87B6818460837BD4680BD80B582B0B4
:100EC00000AF78600B467B8013463B807B681B68D5
:100ED0000C331B687868984703461A467B88934210
:100EE00009D37B681B680C331B68786898470346F6
:100EF000013B9BB200E07B887A6893807B681B682B
:100F000008331B687868984703461A463B88934223
:100F100009D37B681B6808331B68786898470346C9
:100F2000013B9BB200E03B887A68D38000BF083762
:100F3000BD4680BD80B582B000AF78607B68184642
:100F4000FFF7A9FC7B6814331846FFF7C0FC7B68E9
:100F500018331846FFF7D4FC7B6820331846FFF798
:100F6000A8FC7B6824331846FFF7EEFC7B6830331F
:100F70001846FFF77AFC7B6818460837BD4680BDE7
:100F800080B582B000AF78607B6830331846FFF7D9
:100F900077FC7B6824331846FFF7E1FC7B68183345
:100FA0001846FFF7B8FC7B6814331846FFF79DFC22
:100FB0007B6818460837BD4680BD80B582B000AF5B
:100FC00078600B46FB707B6808330021184605F0FB
:100FD00023F97868F91C6423012206F03BFD00BF69
:100FE0000837BD4680BD80B584B000AFF860B960F9
:100FF0007A60FB6808330121184605F00DF9F8689E
:1010000064237A68B96806F025FD00BF1037BD4635
:1010100080BD80B584B000AF78607B68FB60F86805
:1010200001F0F8F97B6818461037BD4680BD80B5E1
:1010300082B000AF78607B68184600F01BFE7B68CA
:1010400018460837BD4680BD80B582B000AF7860D5
:101050007B681846FFF7EBFF7B6818460837BD46EC
:1010600080BDF0B587B000AFF860C7E90023F8682D
:10107000FFF7EAFF0821F86800F05AFE00237B61C1
:101080001EE07B69D900D7E90023C1F12006B1F148
:10109000200022FA01F403FA06F644EA060402D418
:1010A00043FA00F0044343FA01F5E3B2FB7407F19D
:1010B00013031946F86800F0BBFE7B6901337B61BE
:1010C0007B69072BDDDD00BFF8681C37BD46F0BD2E
:1010D0002DE9B04F86B000AF78604FF000024FF0BE
:1010E0000003C7E90423786800F0B3FE0346072B2A
:1010F0008CBF01230023DBB2002B23D00723FB602E
:101100001DE0D7E904234FF000044FF000051D0255
:1011100045EA12651402FB681946786800F0A8FEDB
:1011200003461B78DBB200229846914644EA080A3F
:1011300045EA090BC7E904ABFB68013BFB60FB68B0
:10114000002BDEDAD7E90423104619461837BD46CE
:10115000BDE8B08F80B483B000AF7860044A7B688C
:101160001A607B6818460C37BD465DF8047B7047F3
:101170005019010880B483B000AF7860044A7B68DE
:101180001A607B6818460C37BD465DF8047B7047D3
:101190004019010880B584B000AF78607B68FB60BF
:1011A000F86801F040FA7B6818461037BD4680BDEC
:1011B00080B582B000AF78607B68184600F067FEAB
:1011C0007B6818460837BD4680BD80B582B000AF49
:1011D00078607B681846FFF7EBFF7B681846083796
:1011E000BD4680BD80B582B000AF786039607B6855
:1011F0001846FFF7AFFF7B6804331846FFF7BAFFC6
:10120000234A7B681A60234A7B685A607B683A6885
:101210009A607B6800221A7379684FF000024FF0E1
:101220000003C1E9042379684FF000024FF0000386
:10123000C1E906237B6800221A627B6824331846C2
:10124000FFF702FF7B6830331846FFF7FDFE7B682F
:101250003C331846FFF7F8FE7B6848331846FFF723
:10126000B4FF7B6824330821184600F061FD7B68D9
:1012700030330821184600F05BFD7B683C330821C1
:10128000184600F055FD7B6818460837BD4680BDFE
:10129000181901083019010880B582B000AF7860D4
:1012A0007B6800221A7379684FF000024FF0000348
:1012B000C1E9042379684FF000024FF00003C1E94F
:1012C00006237B6800221A627B682433184600F0EC
:1012D00026FE7B683033184600F021FE7B683C33E5
:1012E000184600F01CFE00BF0837BD4680BD2DE942
:1012F000F04397B002AF786011E17B689A687B6831
:101300009B681B6810331B68104698470346DBB286
:1013100087F823307B681B7B83F00103DBB2002B53
:1013200009D097F823302A2B05D17B681B6A5A1CF9
:101330007B681A62F3E07B681B6A052B0FD17B6820
:10134000D3E904237968D1E9060182428B4104D3B1
:101350007B68D3E90623134301D1012200E0002278
:101360007B681A737B681B7B002B37D07B68D3E9C3
:101370000423082A73F1000330D27B68243307F179
:1013800023021146184600F0D8FD7B68D3E90423F8
:10139000541C43F100057B68C3E904457B68D3E92D
:1013A0000423A2F108010B4347D17B6803F1240217
:1013B00007F124031146184600F0FBFD07F1240352
:1013C0001846FFF785FE02460B467968C1E90623F9
:1013D00007F12403184600F076FC2EE07B681B7BA7
:1013E000002B2AD07B68D3E904237968D1E9060170
:1013F00082428B4121D27B68D3E90423102A73F106
:10140000000308D27B68303307F1230211461846E7
:1014100000F093FD07E07B683C3307F1230211469F
:10142000184600F08AFD7B68D3E9042312F1010815
:1014300043F100097B68C3E904897B68D3E904238D
:101440007968D1E906018B4208BF824267D17B6887
:1014500003F1300207F130031146184600F0A9FDF0
:1014600007F130031846FFF733FE02460B46C7E983
:1014700004237B6803F13C0207F13C031146184644
:1014800000F097FD07F13C031846FFF721FE0246E6
:101490000B46C7E9062307F13C03184600F013FC8E
:1014A00007F13003184600F00EFC7B684833FB64FC
:1014B000F86C00F0C3FD0346FB60F86C00F0CEFD55
:1014C0000346BB601DE007F10C03184600F0FFFD6A
:1014D000B864BB6C1B683B60BB6C1B681B681E68F8
:1014E0006A4607F1180393E8030082E8030007F156
:1014F00010030CCB3868B04707F10C03184600F016
:10150000D6FD07F1080207F10C031146184600F05A
:10151000B6FD0346002BD6D17868FFF7BDFE7B6889
:101520009A687B689B681B680C331B681046984759
:101530000346002B14BF01230023DBB2002B7FF4F2
:10154000DCAE00BF00BF5437BD46BDE8F0830000ED
:1015500082B0F0B595B000AF786007F1680181E81E
:101560000C00D7E91A2307F124010846FFF779FD9B
:10157000D7E91C2307F118010846FFF772FD07F1B0
:101580002403184600F065FC064607F118031846C8
:1015900000F05FFC0346334405331946B86F00F092
:1015A000C7FB0023FB6406E04949B86F00F0C5FCA7
:1015B000FB6C0133FB64FB6C042BF5D907F12403AE
:1015C000184600F046FC064607F11803184600F0DE
:1015D00040FC034633440833BB64BB6C00221C460A
:1015E000154607F10C0122462B460846FFF739FD48
:1015F000B86F00F078FD03467B6307F1340207F112
:1016000030031146184600F08FFD07F10C03184611
:1016100000F07AFD044607F10C03184600F063FD64
:1016200003462246396BB86F00F08FFDB86F00F0AB
:101630005AFD0346FB6307F13C0207F138031146EC
:10164000184600F071FD07F12403184600F05CFD18
:10165000044607F12403184600F045FD03462246E0
:10166000B96BB86F00F071FDB86F00F03CFD034638
:101670007B6407F1440207F140031146184600F06D
:1016800053FD07F11803184600F03EFD044607F12C
:101690001803184600F027FD03462246396CB86F40
:1016A00000F053FD07F10C03184600F00CFB07F1A6
:1016B0001803184600F007FB07F12403184600F052
:1016C00002FB5437BD46BDE8F04002B0704700BF92
:1016D0006C18010882B0B0B58CB004AF786007F127
:1016E000300181E80C0007F108031846FFF7ACFC55
:1016F0007B681B681C6807F1080302936A4607F1C0
:10170000380393E8030082E8030007F130030CCBB1
:101710007868A0477B689D687B689B681B68083376
:101720001C6807F1080207F114031146184600F07F
:1017300040FC07F10803184600F08BFB024607F156
:10174000140319462846A04707F11403184600F071
:10175000BAFA07F10803184600F0B5FA2037BD467B
:10176000BDE8B04002B0704780B584B000AF78608B
:1017700039607B6803F148023B68FB6007F10C03AA
:101780001946104600F01AFD00BF1037BD4680BD57
:10179000A0F10400E8E780B483B000AF786039605E
:1017A00000BF0C37BD465DF8047B7047A0F1040014
:1017B000F1E7000080B483B000AF7860044A7B6832
:1017C0001A607B6818460C37BD465DF8047B70478D
:1017D0006019010880B582B000AF786039607B681D
:1017E0001846FFF7E7FF0C4A7B681A607B683A6887
:1017F0005A607B68083300221A605A607B68103395
:101800004FF48072002118460FF038FA7B681846B2
:101810000837BD4680BD00BFFC1801082DE9F04324
:1018200085B000AF786039606B461E4638680EF0B0
:10183000CFFE0346591C0B46013BFB600023884644
:1018400099464FF000024FF000034FEAC90343EA04
:1018500058734FEAC80200230C461D464FF00002A1
:101860004FF00003EB0043EA5473E200CB1DDB08AA
:10187000DB00ADEB030D6B460033BB6038680EF048
:10188000A9FE03461946B8680FF09CFA7B681B68EE
:1018900004331C6838680EF09BFE03461A46B9688C
:1018A0007868A047B54600BF1437BD46BDE8F08351
:1018B0000EB480B585B000AF786007F12003FB60FF
:1018C000FA68F969786800F007F800BF1437BD4678
:1018D000BDE8804003B0704780B58CB000AFF860C1
:1018E000B9607A60FB6803F110007B68BA684FF456
:1018F00080710FF09BF9FB6803F1100107F12803D9
:10190000FB6207F1280207F1100318460EF080FE73
:1019100007F110031946F868FFF780FF07F110037D
:1019200018460EF04FFE07F12803184600F053FD4D
:1019300000BF3037BD4680BD80B584B000AFF860D1
:10194000B9607A60FB681B6804331B687A68B96801
:10195000F8689847034618461037BD4680BD80B5E5
:1019600088B000AFF860B9607A600023FB610023A3
:10197000BB6126E00023BB6100237B6112E0FB69B1
:10198000BA6813441978FA687B69134408330A4625
:101990001A707B6901337B61FB690133FB61BB69B1
:1019A0000133BB617B69072B03D8FB697A689A42D4
:1019B000E5D2FB685868FB680833BA69194606F037
:1019C000EFFFFB697A689A42D4D8FB691846203742
:1019D000BD4680BD2DE9F04389B000AFF860B96025
:1019E0007A606B461E4679680B46013BBB6100235B
:1019F000884699464FF000024FF000034FEAC903B2
:101A000043EA58734FEAC80200230C461D464FF0C4
:101A100000024FF00003EB0043EA5473E200CB1DD9
:101A2000DB08DB00ADEB030D6B4600337B6100236D
:101A3000FB610EE0FB691946B86800F019FA03462D
:101A400019787A69FB6913440A461A70FB690133F5
:101A5000FB61FB697A689A42ECD8FB681B68043327
:101A60001B687A687969F8689847034600BFB546ED
:101A700018462437BD46BDE8F08380B582B000AF7C
:101A800078607B685B68184606F0A8FF0346184636
:101A90000837BD4680BD80B582B000AF78607B68F6
:101AA0005B68184606F086FF034618460837BD46B1
:101AB00080BD80B582B000AF78607B68184600F0CA
:101AC000CFFB7B6818460837BD4680BD82B080B525
:101AD00082B000AF786007F1100181E80C0007F1D7
:101AE0001001054800F0EFFB00BF0837BD46BDE818
:101AF000804002B0704700BF1C0700242DE9B043AE
:101B0000D0B002AF514803F0FDFE00214F4803F072
:101B100095FF4F494F48FFF727FE0E2003F010FFB7
:101B20000346A7F8183107F58C73C7F828310D2044
:101B300003F006FF0346A7F8143107F58A73C7F8C8
:101B40002431454B4FF4E1329A61434B00225A60F5
:101B5000414B01229A60404B0022DA603E4B022248
:101B60001A613D4B01225A613B4BD7F828210233C1
:101B700012881A80384AD7F824311B8813803649D6
:101B8000364806F06DFE0346354A13600023C7F859
:101B900010314FF000024FF00003C7E94C2301233E
:101BA000C7F82C310023C7F820312C4806F0ECFE92
:101BB000034683F00103DBB2002B05D0274806F073
:101BC000E7FE264806F0CCFE2248FFF790FB17E020
:101BD000244800F0C4FBC7F81C01D7F81C31D3E936
:101BE0000001D7F81C31D3E90223CDE900230246D6
:101BF0000B461D491D48FFF75BFE1A4800F0C3FB6A
:101C0000184800F09AFB034683F00103DBB2002B77
:101C1000DED1D7F82C31DA171C461546D7E94C230C
:101C200012EB040843EB0509C7E94C89D7E94C23BB
:101C30000F4911440B4303D0D7E94C231343B4D1CC
:101C4000D7F82C315B42C7F82C31AEE7CC02002428
:101C500004000024780800244407002460070024BE
:101C6000080000241C0700249817010864070024BA
:101C700000F7C2FF80B584B000AF78607B68FB607E
:101C8000FB68BB607B68184600F0B0FB7B681846B9
:101C90001037BD4680BD80B582B000AF78607B68EC
:101CA00019687B689A687B681B68D31A1A4678683B
:101CB00000F0BBFB7B681846FFF7ABF97B68184662
:101CC0000837BD4680BDB0B586B000AF78607B6890
:101CD0001D687B685C687B68184600F0BFFB0346A4
:101CE0007D613C61FB603969786901F09BF900BF57
:101CF0007B681846FFF7CFFF7B6818461837BD464C
:101D0000B0BD80B582B000AF184600F005F80346BC
:101D100018460837BD4680BD80B483B000AF387127
:101D2000012318460C37BD465DF8047B7047000060
:101D3000B0B588B000AF78603960786800F099FB82
:101D400002463B6893428CBF01230023DBB2002B89
:101D500002D036480EF0E3FB786800F09BFB0246A9
:101D60003B6893428CBF01230023DBB2002B59D088
:101D7000786800F06EF8B861FFF7C3FF0346002BE8
:101D800014D07B683968184600F093FBF8617B68D3
:101D90001C687B685D687B68184600F05FFB034643
:101DA000FA692946204600F09DFB22E07B681B680B
:101DB000184600F0ABFB04467B685B68184600F0F1
:101DC000A5FB034622463968786800F0AEFBF8614F
:101DD0007B681D687B685C687B68184600F03EFB8A
:101DE00003467D613C61FB603969786901F01AF94D
:101DF00000BF78687B6819687B689A687B681B6895
:101E0000D31A1A4600F011FB7B68FA691A60FA6966
:101E1000BB691A447B685A607B681A683B681A443D
:101E20007B689A6000BF2037BD46B0BDBC17010873
:101E300080B582B000AF78603960386800F091FBFF
:101E400003461946786800F097FB00BF0837BD4687
:101E500080BD80B483B000AF78607B685A687B68CF
:101E60001B68D31A18460C37BD465DF8047B7047D3
:101E700080B483B000AF786039607B681A683B68D3
:101E8000134418460C37BD465DF8047B704780B597
:101E900084B000AF78607B68FB60FB68BB607B68E8
:101EA000184600F0ACFB7B6818461037BD4680BD75
:101EB00080B582B000AF78607B6819687B689A68EB
:101EC0007B681B68D31A9B101A46786800F0B6FB33
:101ED0007B681846FFF75EF97B6818460837BD46F1
:101EE00080BDB0B586B000AF78607B681D687B6848
:101EF0005C687B68184600F0BAFB03467D613C6174
:101F0000FB603969786901F0CDF900BF7B6818463C
:101F1000FFF7CEFF7B6818461837BD46B0BD80B5C9
:101F200082B000AF78607B681B681946786800F063
:101F3000A9FB00BF0837BD4680BD90B589B000AF92
:101F4000786039607B685A687B689B689A4223D0C6
:101F50007A687B685B68FA61BB613B687B61786922
:101F600001F0ADF90246FB693B61BB69FB60BA60F9
:101F7000FB6819460120FEF757FC0446B86801F0DB
:101F80009EF903461B78237000BF00BF7B685B6827
:101F90005A1C7B685A6008E0786800F0A4F8034691
:101FA0003A681946786800F091FB00BF2437BD46B7
:101FB00090BDF0B58BB000AF786039607C68386850
:101FC000FFF747FF05463B68184600F051FC034603
:101FD0007B6207F10C037A6A3A62FB613B6ABB6180
:101FE000FB697B61BB693B6100BF00BF07F10C036C
:101FF0001A462946204600F046FC07F10C03184615
:1020000000F008FA386800F052FC0546386800F025
:102010005EFC06467B681C687B68184600F01EFA6A
:10202000034622463146284600F062FC02467B68A1
:102030005A607B6818462C37BD46F0BD80B584B029
:1020400000AF78607A6807F10C031146184600F07B
:1020500060FCFB6818461037BD4680BD80B584B073
:1020600000AF78607B681A1D07F10C031146184613
:1020700000F04FFCFB6818461037BD4680BD90B598
:1020800083B000AF78603960786800F052FC034696
:102090001C68386800F04DFC03461B689C4214BF66
:1020A00001230023DBB218460C37BD4690BD80B437
:1020B00083B000AF78607B681B681A1D7B681A606C
:1020C0007B6818460C37BD465DF8047B704780B4CA
:1020D00083B000AF78607B681B6818460C37BD463C
:1020E0005DF8047B704780B584B000AF78607B6892
:1020F0001A1D07F10C031146184600F025FCFB6879
:1021000018461037BD4680BD80B584B000AF7860FA
:102110007A6807F10C031146184600F015FCFB68BD
:1021200018461037BD4680BD80B582B000AF7860DC
:102130003960386800F018FC03461A687B681A603A
:102140007B6818460837BD4680BD90B58DB002AF9C
:10215000F860B9607A603B60F86800F010FC0346F4
:102160007B6107F1140207F108031146184600F0DD
:1021700016FC7862F868FFF7C7FF0346BB6107F1FA
:102180001803796A184600F01EFC014600BF8DF85E
:1021900000403B687A68F86800F02CFCF868FFF7AC
:1021A000B3FF03463B6207F12003796A184600F04B
:1021B0000AFC034618462C37BD4690BD80B582B058
:1021C00000AF78603960386800F03AFD0346194680
:1021D000786800F040FD00BF0837BD4680BD80B57F
:1021E00082B000AF78607B681846FEF7C3FB7B685F
:1021F00018460837BD4680BD80B582B000AF786014
:102200007B681846FFF7EBFF7B6818460837BD462A
:1022100080BD000080B582B000AF78607B68184652
:1022200000F05CFD064A7B681A607B68083318463C
:10223000FFF7E2FF7B6818460837BD4680BD00BF48
:102240008418010880B584B000AF78607B68FB60BB
:10225000F86801F094FA7B6818461037BD4680BDD7
:1022600080B582B000AF78607B68184600F06AFDE8
:102270000021786800F077FD7B6818460837BD4676
:1022800080BD80B582B000AF78607B681B68002B92
:1022900010D07B6859697B685B6A04331A4678689A
:1022A00000F0C4FD7B6819687B685B681A46786833
:1022B00000F0D7FD7B681846FFF7C4FF7B6818461F
:1022C0000837BD4680BD90B589B000AF78603960F1
:1022D0007B689A697B681B6A103B9A4225D07A68B2
:1022E0007B689B69FA61BB613B687B61786901F03F
:1022F000E5FA0246FB693B61BB69FB60BA60FB68BB
:1023000019461020FEF790FA0446B86801F0D6FA94
:1023100003460FCB84E80F0000BF00BF7B689B69BA
:1023200003F110027B689A6103E03968786800F075
:10233000B9FD00BF2437BD4690BD80B582B000AF67
:1023400078607B6803F118027B68083319461046F1
:1023500000F002FE034618460837BD4680BD80B532
:1023600086B000AF786007F108037968184600F07E
:1023700007FE07F10803184600F011FE0346184651
:102380001837BD4680BD80B586B000AF78607B68E9
:102390009A687B681B69103B9A4215D07B68184687
:1023A00000F009FE02467B689B687A613B617B69AD
:1023B000FB603B69BB6000BF00BF7B689B6803F1AB
:1023C00010027B689A6002E0786800F0FFFD00BFB1
:1023D0001837BD4680BD80B483B000AF78607B689D
:1023E00018460C37BD465DF8047B704780B483B057
:1023F00000AF78607B6800221A607B6800225A6018
:102400007B6800229A607B6818460C37BD465DF8F1
:10241000047B704780B483B000AF78607B68184657
:102420000C37BD465DF8047B704780B588B000AFBF
:10243000F860B9607A60BB68002B0BD0FB68FB6169
:10244000BB68BB617B687B617A69B969F86901F037
:10245000B0FA00BF00BF2037BD4680BD80B483B056
:1024600000AF78607B6818460C37BD465DF8047B8A
:10247000704780B582B000AF78607B68184600F086
:10248000F7F90346184600F0DAFD03461846083708
:10249000BD4680BD80B483B000AF78607B689A6829
:1024A0007B681B68D31A18460C37BD465DF8047B61
:1024B000704780B584B000AF786039603B68002B0E
:1024C0000BD07B68FB603B68BB600022B968F86892
:1024D00001F09CFA034600BF00E0002318461037C5
:1024E000BD4680BD90B587B002AFF860B9607A6034
:1024F0003B608DF800403B687A68B968F86800F086
:10250000BEFD034618461437BD4690BD80B584B065
:1025100000AF786007F10C037968184600F0C1FD40
:10252000FB6818461037BD4680BD80B586B000AF49
:10253000F860B9607A603B60FB68B9681846FFF7DD
:10254000B8FF7861FB681846FFF788FF03467A6991
:102550003968786800F0B7FD7B6918461837BD46C2
:1025600080BD80B483B000AF78607B6818460C37BC
:10257000BD465DF8047B7047B0B588B000AF7860A9
:1025800039607B685A687B689B689A4226D07D6870
:102590007B685C68386800F0A7FD0346FD61BC619C
:1025A0007B61786900F0A0FD0246FB693B61BB6975
:1025B000FB60BA60FB6819460120FEF735F9044656
:1025C000B86800F091FD03461B78237000BF00BF80
:1025D0007B685B685A1C7B685A600CE07868FFF780
:1025E00082FD0446386800F07FFD03461A46214606
:1025F000786800F085FD00BF2037BD46B0BD80B4CF
:1026000083B000AF78607B6800221A607B6800228C
:102610005A607B6800229A607B6818460C37BD467A
:102620005DF8047B704780B483B000AF78607B684E
:1026300018460C37BD465DF8047B704780B588B0FE
:1026400000AFF860B9607A60BB68002B0BD0FB6804
:10265000FB61BB68BB617B687B617A69B969F869BA
:1026600001F031FA00BF00BF2037BD4680BD80B405
:1026700083B000AF78607B6818460C37BD465DF8C4
:10268000047B704790B587B000AF786039607B6895
:102690005A683B68D31A7B617B69002B12D07B6838
:1026A0005C687B681846FFF7D9FE02463B683B61D1
:1026B000FC60BA60F968386900F0B4FC00BF7B6860
:1026C0003A685A6000BF1C37BD4690BDB0B594B0A3
:1026D00000AFF860B9607A60644A0121F86800F0E0
:1026E000F9FDB864FB681B687B64FB685B683B644E
:1026F000F868FFF709FD03463B6107F1100207F197
:1027000008031146184600F02CFE0346FB63FB68E5
:10271000B96C1846FFF7CDFEB863BB6BFB64FD6870
:10272000BA6BFB6BD418786800F0C9FD03467D6373
:102730003C63FB62F86A00F0C2FD02467B6BBB6241
:102740003B6B7B623A627B6A19460120FEF76CF8AC
:102750000446386A00F0B3FD03461B78237000BFBF
:1027600000BF0023FB64FFF7CCFA0346002B27D001
:1027700007F10803184600F0F7F803461C68FB68E9
:102780001846FFF76BFE0346BA6B2146786CFFF7DD
:10279000A9FEF864FB6C0133FB6407F108031846DB
:1027A00000F0E2F803461C68FB681846FFF756FE87
:1027B0000346FA6C396C2046FFF794FEF86426E075
:1027C00007F10803184600F0CFF803461C68FB68C1
:1027D0001846FFF743FE0346BA6B2146786C00F0BB
:1027E000D4FDF864FB6C0133FB6407F10803184661
:1027F00000F0BAF803461C68FB681846FFF72EFE87
:102800000346FA6C396C204600F0BFFDF864FFF710
:1028100078FA034683F00103DBB2002B0ED0FB688D
:102820001846FFF71BFE02467B6CFB613B6CBB61ED
:102830007A61B969F86900F0F5FB00BFF868FB68D8
:102840009A687B6CD31A1A46796CFFF7EEFDFB6829
:10285000BA6B1A60FB68FA6C5A60BA6BBB6C1A44AC
:10286000FB689A6000BF5037BD46B0BDCC17010869
:1028700080B483B000AF78607B6818460C37BD46E3
:102880005DF8047B704780B584B000AFF860B96034
:102890007A60FB687968184600F090FDB968F868BE
:1028A00000F0A2FDFB6818461037BD4680BD80B51C
:1028B00084B000AF78607A6807F10C0311461846BF
:1028C00000F0ACFDFB6818461037BD4680BD80B5F2
:1028D00084B000AF78607B681A1D07F10C031146C5
:1028E000184600F09BFDFB6818461037BD4680BDBA
:1028F00080B584B000AFF860B9607A603B607A68F8
:10290000B968F86800F09AFD034618461037BD46CE
:1029100080BD80B483B000AF786039603B681A68CE
:102920007B681A607B6818460C37BD465DF8047BEF
:10293000704780B483B000AF78607B6818460C376E
:10294000BD465DF8047B704780B483B000AF78600B
:1029500039603B681A687B681A607B6818460C37D8
:10296000BD465DF8047B704780B483B000AF7860EB
:102970007B6818460C37BD465DF8047B704780B510
:1029800084B000AF78607A6807F10C0311461846EE
:1029900000F044FDFB6818461037BD4680BD90B579
:1029A00083B000AF78603960786800F05BFD034663
:1029B0001C68386800F056FD03461B68E31A184689
:1029C0000C37BD4690BD80B584B000AF78603960EB
:1029D0007B681A683B681344FB6007F10C0207F13F
:1029E000080311461846FFF7AFFFBB6818461037BB
:1029F000BD4680BDF0B59BB000AFF860B9607A60AD
:102A00003B603A463B1D1146184600F036FD034632
:102A1000002B00F00E817B687B623B68BB6200BFCD
:102A20007B6ABB61BB6AFB6107F1180207F11C03FB
:102A30001146184600F095FC034600BF00BF7B66B8
:102A4000FB689A68FB685B68D31A1A467B6E9342F0
:102A500000F28980F868FFF746FB0346FB6207F146
:102A6000080207F12C031146184600F07AFC0346D1
:102A7000FB64FB685B68BB64FA6C7B6E9A422DD981
:102A8000FB685A687B6E5B42D418FB685D68FB6824
:102A90005E68FB681846FFF7E1FC034632462946AC
:102AA000204600F002FDFB685A687B6E1A44FB6802
:102AB0005A6007F108031846FFF756FF03461868E7
:102AC0007B6E5B42BA6C1344BA6C194600F006FD8B
:102AD000BA683968786800F019FDAAE07B687B6104
:102AE000FB6C7B647B6C3B6407F11403FB6300BFEE
:102AF00007F114032246396C184601F07EF800BF36
:102B0000FB685C68FB681846FFF7A8FC0346224692
:102B10003968786900F012FDFB685A68796EFB6CC1
:102B2000CB1A1A44FB685A6007F108031846FFF7EE
:102B30001BFF03461C68FB685D68FB681846FFF7CF
:102B40008DFC03462A46B96C204600F0AEFCFB68BB
:102B50005A68FB6C1A44FB685A60BA6879697868ED
:102B600000F0D4FC65E0FB681B683B66FB685B68B3
:102B7000FB65324A796EF86800F0ACFBB865FB681B
:102B8000B96D1846FFF795FC78657B6D3B6507F1DD
:102B900008031846FFF7E8FE03461C68FB68184662
:102BA000FFF75CFC03467A6D2146386E00F0EDFBC2
:102BB0003865FB681846FFF751FC03463A6D3968E3
:102BC000786800F0BBFC386507F108031846FFF78A
:102BD000CBFE03461C68FB681846FFF73FFC034624
:102BE0003A6DF96D204600F0D0FB3865FB68184659
:102BF000FFF734FC02463B6EBB63FB6D7B633A63BD
:102C0000796BB86B00F00EFA00BFF868FB689A6841
:102C10003B6ED31A1A46396EFFF707FCFB687A6DD4
:102C20001A60FB683A6D5A607A6DBB6D1A44FB6896
:102C30009A6000BF6C37BD46F0BD00BFE8170108C1
:102C400080B483B000AF78607B6818460C37BD460F
:102C50005DF8047B7047B0B588B000AF786039602C
:102C60007B685A687B689B689A4226D07D687B683F
:102C70005C68386800F073FC0346FD61BC617B61F1
:102C8000786900F06CFC0246FB693B61BB69FB6044
:102C9000BA60FB6819460420FDF7C6FD0446B86813
:102CA00000F05DFC03461B68236000BF00BF7B682B
:102CB0005B681A1D7B685A600CE07868FFF7CEF9F4
:102CC0000446386800F04BFC03461A4621467868F3
:102CD00000F066FC00BF2037BD46B0BD80B582B0B5
:102CE00000AF78607B681846FEF7B8F8034A7B6847
:102CF0001A607B6818460837BD4680BDC0180108B9
:102D000080B582B000AF7860054A7B681A607B6846
:102D10001846FEF7B3F87B6818460837BD4680BDF5
:102D2000C018010880B582B000AF78607868FFF7FE
:102D3000E7FF082178680DF01BF97B681846083713
:102D4000BD4680BD80B584B000AF78607B68FB6015
:102D5000FB68BB607B68184600F0F8FC7B6818468F
:102D60001037BD4680BD90B589B000AF786039603E
:102D70001020FDF765FD02463B68B3FBF2F301331B
:102D8000FB610823FB60FB6902333B6107F1100222
:102D900007F10C031146184600F0FCFC03461A68C4
:102DA0007B685A607B685B681946786800F006FDAE
:102DB00002467B681A607B681A687B685968FB6901
:102DC000CB1A5B089B001344BB61FB699B00BA698B
:102DD00013447B617A69B969786800F010FD7B68FB
:102DE0000833B969184600F025FD7B6803F1180225
:102DF0007B69043B1946104600F01CFD7B68DA68CD
:102E00007B689A607B68DC691020FDF719FD02463B
:102E10003B68B3FBF2F101FB02F29B1A1B01E218C3
:102E20007B689A6100BF2437BD4690BD80B586B0EF
:102E300000AFF860B9607A60BB687B6108E07B69CD
:102E40001B681946F86800F00EFD7B6904337B614E
:102E50007A697B689A42F2D300BF00BF1837BD463B
:102E600080BD80B588B000AFF860B9607A6007F1C6
:102E70001403F968184600F00EFDBB68FB617B681F
:102E8000BB6107F11403BA69F969184600F0AEFF97
:102E900000BF07F11403184600F09DFF00BF203764
:102EA000BD4680BDB0B588B000AF78603960786845
:102EB00000F00FFD0446786800F01DFD03469C42BB
:102EC0000CBF01230023DBB2002B02D021480DF000
:102ED00026FB0121786800F01FFD7A687B685B6A39
:102EE0001C1D104600F033FD034623607D687B689F
:102EF0009C69386800F0E2FC0346FD61BC617B61BF
:102F0000786900F0DBFC0246FB693B61BB69FB6052
:102F1000BA60FB6819461020FDF786FC0446B868C5
:102F200000F0CCFC03460FCB84E80F0000BF00BFCD
:102F30007B6803F118027B685B6A0433194610460C
:102F400000F078FC7B68DA697B689A6100BF203703
:102F5000BD46B0BD0018010880B483B000AF7860F2
:102F600039607B681A683B681B689A420CBF012372
:102F70000023DBB218460C37BD465DF8047B704772
:102F800080B582B000AF786039603B68083319467D
:102F9000786800F0F2FC78680837BD4680BD80B4E0
:102FA00083B000AF78607B681B6818460C37BD465D
:102FB0005DF8047B704780B483B000AF78607B68B5
:102FC00018460C37BD465DF8047B704780B586B067
:102FD00000AF78607B681846FFF7EDFF02467B681C
:102FE0009B687A613B617B69FB603B69BB6000BFAA
:102FF00000BF7A687B68DB681946104600F033FC36
:103000007B6803F108027B685B690433194610464C
:1030100000F010FC7B68DA687B689A6000BF1837A4
:10302000BD4680BD80B582B000AF78603960396838
:10303000786800F0CCFC00BF0837BD4680BD80B585
:1030400088B000AF78606FF000433B617B68FB6144
:10305000FB69BB61BB697B616FF0004300BF00BFD0
:10306000FB6007F10C0207F110031146184600F04F
:10307000B9FC03461B6818462037BD4680BD80B5A5
:1030800084B000AFF860B9607A603B603B687A68F2
:10309000B968F86800F0DBFC034618461037BD46F7
:1030A00080BD80B582B000AF786039603B4618467D
:1030B00000F0EAFC03461A687B681A607B681846D1
:1030C0000837BD4680BD80B584B000AFF860B960F8
:1030D0007A603B607A68B968F86800F0E0FC034603
:1030E00018461037BD4680BD80B483B000AF78600D
:1030F0007B6818460C37BD465DF8047B70470000BE
:10310000B0B594B000AFF860B9607A60644A01214C
:10311000F86800F0DFF8B864FB681B687B64FB6844
:103120005B683B64F868FEF7EFFF03463B6107F11D
:10313000100207F108031146184600F012F9034681
:10314000FB63FB68B96C1846FFF7B3F9B863BB6B58
:10315000FB64FD68BA6BFB6BD4187868FFF7C4FF9B
:1031600003467D633C63FB62F86AFFF7BDFF0246DE
:103170007B6BBB623B6B7B623A627B6A19460120C8
:10318000FDF752FB0446386AFFF7AEFF03461B7893
:10319000237000BF00BF0023FB64FEF7B2FD0346AF
:1031A000002B27D007F108031846FFF7DDFB034685
:1031B0001C68FB681846FFF751F90346BA6B2146B5
:1031C000786CFFF78FF9F864FB6C0133FB6407F14F
:1031D00008031846FFF7C8FB03461C68FB6818463F
:1031E000FFF73CF90346FA6C396C2046FFF77AF991
:1031F000F86426E007F108031846FFF7B5FB03461D
:103200001C68FB681846FFF729F90346BA6B21468C
:10321000786C00F0BAF8F864FB6C0133FB6407F1DA
:1032200008031846FFF7A0FB03461C68FB68184616
:10323000FFF714F90346FA6C396C204600F0A5F844
:10324000F864FEF75EFD034683F00103DBB2002B5A
:103250000ED0FB681846FFF701F902467B6CFB6154
:103260003B6CBB617A61B969F869FFF7DBFE00BFAF
:10327000F868FB689A687B6CD31A1A46796CFFF77A
:10328000D4F8FB68BA6B1A60FB68FA6C5A60BA6BC8
:10329000BB6C1A44FB689A6000BF5037BD46B0BD96
:1032A000CC17010880B582B000AF7860396039680A
:1032B000786800F018FC00BF0837BD4680BD80B4B8
:1032C00083B000AF78607B6818460C37BD465DF868
:1032D000047B704790B587B000AFF860B9607A6042
:1032E000F868FFF7C6F80446F868FEF7B2FD034633
:1032F000E21ABB689A4234BF01230023DBB2002BE1
:1033000002D078680DF00BF9F868FEF7A2FD0446CC
:10331000F868FEF79EFD03463B6107F1080207F1DE
:1033200010031146184600F035FA03461B68234483
:103330007B61F868FEF78DFD02467B69934206D3F8
:10334000F868FFF796F802467B69934204D9F8685B
:10335000FFF78FF8034600E07B6918461C37BD462F
:1033600090BD90B583B000AF786039607868FFF7A2
:10337000FBFA03461C683868FFF7F6FA03461B6839
:10338000E31A18460C37BD4690BD90B585B000AF26
:10339000F860B9607A603B60F868FFF7B7F80446F8
:1033A000B868FFF7B3F801463B687A682046FFF734
:1033B0008AFE034618461437BD4690BD80B586B0D8
:1033C00000AF786039607B687B613B683B617B69FB
:1033D000FB603B69BB607B681846FFF707F87B68BA
:1033E00018461837BD4680BD80B582B000AF786002
:1033F000396039687868FFF75CF802467B681A60C4
:103400007B681A687B685A607B681A683B681A4454
:103410007B689A6000BF0837BD4680BD80B483B02A
:1034200000AF786039603B681A687B681A607B6817
:1034300018460C37BD465DF8047B704780B586B0F2
:1034400000AFF860B9607A600123FB750123BB759A
:103450007A68B968F86800F051FB034618461837D7
:10346000BD4680BD80B483B000AF78607B681846ED
:103470000C37BD465DF8047B704790B583B000AF54
:10348000786039607868FFF76FFA03461C6838681F
:10349000FFF76AFA03461B689C4214BF012300230E
:1034A000DBB218460C37BD4690BD90B585B000AF75
:1034B000F860B9607A603B60F86800F02FFB044662
:1034C000B86800F02BFB01463B687A682046FFF79E
:1034D000FAFD034618461437BD4690BD90B585B039
:1034E00000AFF860B9607A60F86800F02CFB044621
:1034F000B86800F028FB03467A681946204600F0B9
:103500002DFB034618461437BD4690BD90B585B0D7
:1035100000AFF860B9607A60F86800F042FB0446DA
:10352000B86800F03EFB03467A681946204600F072
:1035300043FB034618461437BD4690BD80B584B0A2
:1035400000AFF860B9607A603B607A68B968F86883
:1035500000F061FB034618461037BD4680BD80B4BD
:1035600083B000AF78607B6818460C37BD465DF8C5
:10357000047B704780B582B000AF184600F005F8B4
:10358000034618460837BD4680BD80B483B000AFFF
:103590003871012318460C37BD465DF8047B70472F
:1035A000B0B594B000AFF860B9607A60664A0121A6
:1035B000F86800F044FBB864FB681B687B64FB6838
:1035C0005B683B64F868FEF739FD03463B6107F131
:1035D000100207F108031146184600F077FB034676
:1035E000FB63FB68B96C184600F085FBB863BB6BE6
:1035F000FB64FD68FB6B9B00BA6BD4187868FFF71F
:10360000AEFF03467D633C63FB62F86AFFF7A7FFEA
:1036100002467B6BBB623B6B7B623A627B6A1946FC
:103620000420FDF701F90446386AFFF798FF0346C6
:103630001B68236000BF00BF0023FB64FFF79AFFF5
:103640000346002B27D007F108031846FFF771F94E
:1036500003461C68FB681846FFF709F80346BA6B77
:103660002146786C00F060FBF864FB6C0433FB646B
:1036700007F108031846FFF75CF903461C68FB686E
:103680001846FEF7F4FF0346FA6C396C204600F04A
:103690004BFBF86426E007F108031846FFF749F9E9
:1036A00003461C68FB681846FEF7E1FF0346BA6B49
:1036B0002146786C00F04CFBF864FB6C0433FB642F
:1036C00007F108031846FFF734F903461C68FB6846
:1036D0001846FEF7CCFF0346FA6C396C204600F022
:1036E00037FBF864FFF746FF034683F00103DBB2C4
:1036F000002B0ED0FB681846FEF7B9FF02467B6C24
:10370000FB613B6CBB617A61B969F869FFF7CAFD7F
:1037100000BFF868FB689A687B6CD31A9B101A4646
:10372000796CFEF78BFFFB68BA6B1A60FB68FA6C6A
:103730005A60BB6C9B00BA6B1A44FB689A6000BF6E
:103740005037BD46B0BD00BFCC17010880B582B070
:1037500000AF78607B6800221A607B6800225A60A4
:103760007B680833184600F00CFB7B68183318465A
:1037700000F007FB7B6818460837BD4680BD80B463
:1037800083B000AF78607B6818460C37BD465DF8A3
:10379000047B704780B483B000AF786039607B6889
:1037A0001A683B681B689A4201D23B6800E07B685C
:1037B00018460C37BD465DF8047B704790B585B060
:1037C00000AF7860396007F108037968184600F0A7
:1037D00062F83B68FB6007F108030022F9681846AD
:1037E00000F00CFD044600BF00BF07F108031846B7
:1037F00000F0F1FA234618461437BD4690BD80B557
:1038000086B000AFF860B9607A60BB687B6108E0A1
:10381000F86800F09CF802467B691A607B69043303
:103820007B617A697B689A42F2D300BF00BF183788
:10383000BD4680BD90B583B000AF786039607B68CD
:103840003A68DA603B681A687B685A607B685C6833
:1038500000F0AEFA03461B01E2187B689A6000BFD5
:103860000C37BD4690BD90B587B000AF7860396029
:103870007C681020FCF7E4FF02467C613B683B61FA
:10388000FA60FA683969786900F0E1FC00BF00BFAE
:103890001C37BD4690BD80B586B000AF78603960FA
:1038A000386800F08DFA02467B687B613A617B697B
:1038B000FB6000BF78681837BD4680BD80B483B018
:1038C00000AF78607B6818460C37BD465DF8047B16
:1038D000704780B582B000AF78607B6803F1180252
:1038E0007B6808331946104600F090FA03461846E4
:1038F0000837BD4680BD80B582B000AF78607B6878
:10390000184600F05DFA0346184600F0ABFA03468D
:1039100018460837BD4680BD80B582B000AF7860DC
:1039200039603B685A1C7B685B687968486A7968CB
:103930000968411A89105B1A9A4204D90022396831
:10394000786800F0AFFA00BF0837BD4680BD90B57B
:1039500085B000AF78607C681020FCF771FF0346EB
:10396000FC60BB600022B968F86800F0B0FC034658
:1039700000BF18461437BD4690BD80B483B000AF79
:10398000786039603B681A687B681A603B685A68DF
:103990007B685A603B689A687B689A603B68DA6823
:1039A0007B68DA607B6818460C37BD465DF8047B9F
:1039B000704780B584B000AFF860B9607A6079680C
:1039C000B8680CF0D5FA00BF1037BD4680BD80B492
:1039D00083B000AF7860396000BF0C37BD465DF83A
:1039E000047B704780B483B000AF786039603B6877
:1039F0001A687B681B689A4201D23B6800E07B68CA
:103A000018460C37BD465DF8047B704780B586B01C
:103A100000AFF860B9607A60FB687B616FF00042CC
:103A2000BB6893428CBF01230023DBB2002B14BF81
:103A300001230023DBB2002B01D00CF067FDB86836
:103A40000CF098FA034618461837BD4680BDB0B54D
:103A500084B000AFF860B9607A603B60F86800F04D
:103A6000BBFA0446B86800F0B7FA0546786800F07B
:103A7000B3FA02463B682946204600F0B8FA0346EE
:103A800018461037BD46B0BD80B483B000AF786033
:103A90007B6818460C37BD465DF8047B704780B5DF
:103AA00086B000AFF860B9607A600123FB7501232E
:103AB000BB757A68B968F86800F0B4FA034618462E
:103AC0001837BD4680BD80B584B000AFF860B960DE
:103AD0007A607B689B001946B8680CF049FA00BF11
:103AE0001037BD4680BD80B483B000AF78603960C8
:103AF00000BF0C37BD465DF8047B704780B584B0CD
:103B000000AFF860B9607A607A68B968F86800F068
:103B100099FA034618461037BD4680BD80B584B07B
:103B200000AF78603B1D1846FFF7AEFF03461A68EA
:103B300007F10C0311461846FFF7B3FAFB68184665
:103B40001037BD4680BD80B483B000AF78607B681D
:103B500018460C37BD465DF8047B7047B0B584B09D
:103B600000AFF860B9607A60F86800F035FA044692
:103B7000B86800F031FA05467B68184600F02CFA68
:103B800003461A462946204600F074FA02463B1DB9
:103B90001146184600F07EFA034618461037BD4617
:103BA000B0BD80B483B000AF78607B6818460C3736
:103BB000BD465DF8047B7047B0B584B000AFF860D7
:103BC000B9607A60F86800F071FA0446B86800F0ED
:103BD0006DFA0546786800F069FA03461A462946E8
:103BE000204600F071FA03461946786800F07CFA26
:103BF000034618461037BD46B0BD80B584B000AF4F
:103C0000F860B9603A71B968F86800F082FA00BFEC
:103C10001037BD4680BD80B586B000AFF860B96092
:103C20007A600123FB750123BB757A68B968F8686F
:103C300000F081FA034618461837BD4680BD90B59E
:103C400087B000AFF860B9607A60F86800F083FA76
:103C50000446F86800F090FA0346E21ABB689A42FC
:103C600034BF01230023DBB2002B02D078680CF0B4
:103C700056FCF86800F080FA0446F86800F07CFA18
:103C800003463B6107F1080207F11003114618468D
:103C9000FFF780FD03461B6823447B61F86800F052
:103CA0006BFA02467B69934206D3F86800F053FA38
:103CB00002467B69934204D9F86800F04CFA034647
:103CC00000E07B6918461C37BD4690BD90B583B0B7
:103CD00000AF786039607868FEF72BFE03461C68F9
:103CE0003868FEF726FE03461B68E31A9B10184649
:103CF0000C37BD4690BD80B584B000AF78603960A8
:103D00003B68002B0BD07B68FB603B68BB600022EC
:103D1000B968F86800F0ADFB034600BF00E000237F
:103D200018461037BD4680BD90B587B002AFF86029
:103D3000B9607A603B608DF800403B687A68B9688A
:103D4000F86800F029FA034618461437BD4690BDBE
:103D500090B585B000AFF860B9607A603B60F868F4
:103D600000F02CFA0446B86800F028FA01463B68D7
:103D70007A68204600F031FA034618461437BD46EB
:103D800090BD80B483B000AF78607B6800221A6079
:103D90007B6800225A607B6800229A607B68002260
:103DA000DA607B6818460C37BD465DF8047B7047C7
:103DB00080B500AF1020FCF743FD0346184680BDD8
:103DC00080B483B000AF78607B6818460C37BD467E
:103DD0005DF8047B704780B483B000AF78607B6887
:103DE00018460C37BD465DF8047B704780B584B03B
:103DF00000AFF860B9607A607B689B001946B868CC
:103E00000CF0B6F800BF1037BD4680BD80B582B05B
:103E100000AF78603960FFF7CBFF034619467B6837
:103E2000DA683B68DB68D31A9B101A467B68DB684C
:103E3000002B14BF01230023DBB2D31A01FB03F3D1
:103E40007A6811687A6852688A1A121113443A68BB
:103E500091683A6812688A1A121113441846083792
:103E6000BD4680BD80B588B000AF78606FF000437C
:103E70003B617B68FB61FB69BB61BB697B616FF088
:103E8000784300BF00BFFB6007F10C0207F110038D
:103E900011461846FFF7A6FD03461B681846203753
:103EA000BD4680BD90B58BB000AFF860B9601346D9
:103EB000FB71FB685A6AFB685B69D31A9B1001337C
:103EC0003B62BB683A6A1344FB61FB685A68FB6952
:103ED0005B009A422DD9FB681A68FB685968FB6938
:103EE000CB1A5B089900FB79002B02D0BB689B00C2
:103EF00000E000230B4413447B62FB685B697A6A31
:103F00009A4209D2FB685869FB685B6A04337A6A93
:103F1000194600F0ACF948E0FB685869FB685B6A39
:103F2000191D3B6A9B007A6A13441A4600F0B7F9E0
:103F30003BE0FB685C68FB68043307F1080211464C
:103F40001846FFF727FC03461B6823440233BB6176
:103F5000FB68B9691846FFF731FC7861BA69FB69FB
:103F6000D31A5B089A00FB79002B02D0BB689B0038
:103F700000E0002313447A6913447B62FB685869AC
:103F8000FB685B6A04337A6A194600F070F9F868D6
:103F9000FB681968FB685B681A46FEF762FFFB68FE
:103FA0007A691A60FB68BA695A60FB680833796AF3
:103FB0001846FFF73FFCFB6803F118003A6A6FF000
:103FC000404313449B007A6A13441946FFF732FCBE
:103FD00000BF2C37BD4690BD80B483B000AF786081
:103FE0007B6818460C37BD465DF8047B704780B58A
:103FF00086B000AFF860B9607A603B60BA68FB6871
:10400000D31A7B617B69002B05DD7B691A46F96851
:1040100078680CF019FE7B697A68134418461837E3
:10402000BD4680BD80B584B000AFF860B9607A60ED
:104030007A68B968F86800F073F9034618461037D3
:10404000BD4680BD90B585B000AFF860B9607A60BC
:10405000F86800F07DF90446B86800F079F9034685
:104060007A681946204600F07EF903461846143750
:10407000BD4690BD80B584B000AFF860B9607A608D
:104080007A68B968F86800F091F903461846103765
:10409000BD4680BD80B483B000AF786039603B68B6
:1040A00018460C37BD465DF8047B704780B582B07A
:1040B00000AF78603B1D1846FEF756FC03461B68B0
:1040C00018460837BD4680BD80B584B000AFF860A3
:1040D000B9607A607A68B968F86800F077F90346E1
:1040E00018461037BD4680BD80B582B000AF7860FD
:1040F00039607868FFF7DAFF02463B689A1A3B1D81
:1041000011461846FEF75FFC034618460837BD46C1
:1041100080BD80B483B000AF786039607B681A6876
:104120003B681A447B681A607B6818460C37BD46AA
:104130005DF8047B704780B584B000AFF860B9606B
:104140007A607A68B968F86800F050F90346184652
:104150001037BD4680BD80B582B000AF78607B6807
:10416000184600F07BF90346184600F057F903465D
:1041700018460837BD4680BD80B483B000AF786074
:104180007B685A687B681B68D31A9B1018460C37EB
:10419000BD465DF8047B704780B584B000AFF86021
:1041A000B9607A603B603B687A68B968F86800F08B
:1041B00089F9034618461037BD4680BD80B584B0E6
:1041C00000AF786007F10C037968184600F097F9A2
:1041D000FB6818461037BD4680BD80B584B000AF7F
:1041E000F860B9607A603B607A68B968F86800F096
:1041F00098F9034618461037BD4680BD80B586B095
:1042000000AFF860B9607A60FB687B616FF0604274
:10421000BB6893428CBF01230023DBB2002B14BF89
:1042200001230023DBB2002B07D0BB68B3F1804F22
:1042300001D30CF06EF90CF069F9BB689B001846CD
:104240000BF098FE034618461837BD4680BD80B572
:1042500084B000AFF860B9607A607B681B011946D2
:10426000B8680BF085FE00BF1037BD4680BD90B525
:1042700085B000AFF860B9607A60F86800F065F961
:104280000446B86800F061F903467A68194620468A
:1042900000F066F9034618461437BD4690BD90B548
:1042A00085B000AFF860B9607A60F86800F04DF949
:1042B0000446B86800F049F903467A681946204672
:1042C00000F071F9034618461437BD4690BD80B51D
:1042D00086B000AFF860B9607A60FB687B616FF010
:1042E0007842BB6893428CBF01230023DBB2002BD2
:1042F00014BF01230023DBB2002B07D0BB68B3F14E
:10430000805F01D30CF005F90CF000F9BB681B01CC
:1043100018460BF02FFE034618461837BD4680BDE1
:1043200090B585B000AFF860B9607A60F86800F0C9
:104330005DF90446B86800F059F903467A681946F1
:10434000204600F064F9034618461437BD4690BD78
:1043500080B483B000AF78607B6818460C37BD46E8
:104360005DF8047B7047B0B584B000AFF860B96009
:104370007A60F86800F06EF90446B86800F06AF9EF
:1043800005467B681846FFF727FE03461A4629466E
:10439000204600F06DF902463B1D11461846FFF716
:1043A00079FE034618461037BD46B0BD80B584B0CF
:1043B00000AFF860B9607A607A68B968F86800F0B0
:1043C00067F9034618461037BD4680BD80B584B0F6
:1043D00000AFF860B9607A607A68B968F86800F090
:1043E00084F9034618461037BD4680BD90B585B0A8
:1043F00000AFF860B9607A60F868FFF7D2FB044656
:10440000B868FFF7CEFB03467A681946204600F0ED
:1044100093F9034618461437BD4690BD80B588B061
:1044200000AF78606FF060433B617B68FB61FB69C4
:10443000BB61BB697B616FF0604300BF00BFFB6085
:1044400007F10C0207F1100311461846FFF7CAFAEC
:1044500003461B6818462037BD4680BD80B483B034
:1044600000AF78607B6818460C37BD465DF8047B6A
:10447000704780B586B000AFF860B9607A60FB68BD
:104480007B616FF06042BB6893428CBF01230023C5
:10449000DBB2002B14BF01230023DBB2002B07D0BB
:1044A000BB68B3F1804F01D30CF033F80CF02EF859
:1044B000BB689B0018460BF05DFD03461846183795
:1044C000BD4680BDB0B584B000AFF860B9607A6019
:1044D0003B60F86800F053F90446B86800F04FF903
:1044E0000546786800F04BF902463B6829462046AD
:1044F00000F050F9034618461037BD46B0BD80B5F0
:1045000082B000AF786039603B46184600F060F931
:1045100003461A687B681A607B6818460837BD46F0
:1045200080BD80B586B000AFF860B9607A600123C5
:10453000FB750123BB757A68B968F86800F053F918
:10454000034618461837BD4680BD80B483B000AF1F
:1045500078607B6818460C37BD465DF8047B704771
:10456000B0B584B000AFF860B9607A60F86800F068
:104570004AF90446B86800F046F905467B681846D3
:1045800000F041F903461A462946204600F046F954
:1045900002463B1D1146184600F050F903461846E6
:1045A0001037BD46B0BDB0B584B000AFF860B9609B
:1045B0007A60F86800F027F90446B86800F023F93B
:1045C00005467B68184600F01EF903461A46294640
:1045D000204600F03FF902463B1D1146184600F008
:1045E0002DF9034618461037BD46B0BD80B582B0E0
:1045F00000AF78603B1D184600F03CF903461846B2
:10460000FFF7A1FA034618460837BD4680BDB0B58E
:1046100084B000AFF860B9607A60F868FFF7DCFC3E
:104620000446B868FFF7D8FC05467B681846FFF7D4
:10463000D3FC03461A462946204600F027F90246D5
:104640003B1D11461846FFF725FD03461846103757
:10465000BD46B0BD80B582B000AF78603B1D184646
:10466000FEF700FF03461B6818460837BD4680BDAD
:1046700080B584B000AFF860B9607A607A68B968D4
:10468000F86800F013F9034618461037BD4680BDA0
:1046900080B586B000AFF860B9607A60BA68FB6830
:1046A000D31A7B617B69012BCCBF01230023DBB2D2
:1046B000002B09D07B695B427A6813447A69F968F8
:1046C00018460CF0C1FA08E07B69012B05D17B6824
:1046D000013BF968184600F0F9F87B695B427A689B
:1046E000134418461837BD4680BD80B586B000AF6C
:1046F000F860B9607A60BA68FB68D31A7B617B693D
:10470000012BCCBF01230023DBB2002B06D07B6939
:104710001A46F96878680CF097FA06E07B69012B75
:1047200003D1F968786800F0E1F87B697A6813448E
:1047300018461837BD4680BDB0B584B000AFF860EC
:10474000B9607A60F868FFF7B1FC0446B868FFF713
:10475000ADFC05467B681846FFF73EFC03461A464B
:1047600029462046FFF7B0FC02463B1D114618467D
:10477000FFF790FC034618461037BD46B0BD80B425
:1047800083B000AF78607B6818460C37BD465DF893
:10479000047B704780B586B000AFF860B9607A607E
:1047A0003B60BA68FB68D31A9B107B617B69002B66
:1047B00006DD7B699B001A46F96878680CF044FABC
:1047C0007B699B007A68134418461837BD4680BD44
:1047D00080B483B000AF78607B6818460C37BD4664
:1047E0005DF8047B704780B584B000AFF860B960B5
:1047F0007A607A68B968F86800F087F80346184666
:104800001037BD4680BD80B483B000AF78607B6850
:1048100018460C37BD465DF8047B704780B584B000
:1048200000AFF860B9607A607A68B968F86800F03B
:1048300084F8034618461037BD4680BD80B483B067
:1048400000AF786039603B6818460C37BD465DF8AC
:10485000047B704780B584B000AFF860B9607A60BF
:104860007A68B968F86800F078F803461846103797
:10487000BD4680BD80B483B000AF78607B681B68A4
:1048800018460C37BD465DF8047B704780B584B090
:1048900000AFF860B9607A607A68B968F86800F0CB
:1048A0006CF8034618461037BD4680BD80B584B00D
:1048B00000AFF860B9607A607A68B968F86800F0AB
:1048C0006CF8034618461037BD4680BD80B582B0EF
:1048D00000AF786039603868FDF743FE03461A7808
:1048E0007B681A7000BF0837BD4680BD80B483B0B6
:1048F00000AF786039603B681A787B681A7000BF37
:104900000C37BD465DF8047B704790B585B000AFAD
:10491000F860B9607A60F86800F066F80446B86834
:1049200000F062F803467A681946204600F06DF8F8
:10493000034618461437BD4690BD80B584B000AF1D
:10494000F860B9607A607A68B968F86800F080F851
:10495000034618461037BD4680BD80B584B000AF11
:10496000F860B9607A607A68B968F86800F09AF817
:10497000034618461037BD4680BD80B584B000AFF1
:10498000F860B9607A607A68B968F86800F0BBF8D6
:10499000034618461037BD4680BD80B586B000AFCF
:1049A000F860B9607A60BA68FB68D31A7B617B698A
:1049B000012BCCBF01230023DBB2002B06D07B6987
:1049C0001A46F96878680CF03FF906E07B69012B1C
:1049D00003D1F968786800F0BDF87B697A68134400
:1049E00018461837BD4680BD80B582B000AF7860EC
:1049F0003B1D184600F0BDF80346184600F0C5F808
:104A0000034618460837BD4680BDB0B584B000AF38
:104A1000F860B9607A60F868FFF7B1FE0446B868DC
:104A2000FFF7ADFE05467B681846FFF7A8FE034674
:104A30001A462946204600F0B3F802463B1D1146AF
:104A4000184600F0BDF8034618461037BD46B0BD05
:104A500080B586B000AFF860B9607A60BA68FB686C
:104A6000D31A9B107B617B69012BCCBF01230023F0
:104A7000DBB2002B07D07B699B001A46F968786887
:104A80000CF0E2F806E07B69012B03D1F968786845
:104A900000F0A2F87B699B007A6813441846183727
:104AA000BD4680BD80B586B000AFF860B9607A6061
:104AB000BA68FB68D31A9B107B617B69012BCCBF62
:104AC00001230023DBB2002B0BD07B699B005B42F0
:104AD0007A68D0187B699B001A46F9680CF0B4F824
:104AE00008E07B69012B05D17B68043BF968184617
:104AF00000F072F87B699B005B427A6813441846A9
:104B00001837BD4680BD80B586B000AFF860B9608B
:104B10007A60BA68FB68D31A7B617B69012BCCBFD2
:104B200001230023DBB2002B06D07B691A46F9680B
:104B300078680CF089F806E07B69012B03D1F968ED
:104B40007868FFF7C3FE7B697A6813441846183704
:104B5000BD4680BD80B483B000AF786039603B68EB
:104B60001A787B681A7000BF0C37BD465DF8047B6D
:104B7000704780B483B000AF78607B681B681846CC
:104B80000C37BD465DF8047B704780B483B000AF3E
:104B900078607B6818460C37BD465DF8047B70472B
:104BA00080B584B000AFF860B9607A607A68B9689F
:104BB000F86800F020F8034618461037BD4680BD5F
:104BC00080B483B000AF786039603B6818460C371A
:104BD000BD465DF8047B704780B483B000AF786059
:104BE00039603B681A687B681A6000BF0C37BD46A5
:104BF0005DF8047B704780B584B000AFF860B960A1
:104C00007A607A68B968F86800F005F803461846D3
:104C10001037BD4680BD80B586B000AFF860B96082
:104C20007A60BA68FB68D31A9B107B617B69012BA1
:104C3000CCBF01230023DBB2002B07D07B699B0094
:104C40001A46F96878680BF0FFFF06E07B69012BD4
:104C500003D1F968786800F008F87B699B007A68EE
:104C6000134418461837BD4680BD80B582B000AFEA
:104C7000786039603868FDF7E3FF03461A687B689F
:104C80001A6000BF0837BD4680BD000080B582B005
:104C900000AF78600F4A7B681A600F4A7B685A60E1
:104CA0007B6848331846FDF71CF97B683C3318468F
:104CB000FDF709F87B6830331846FDF704F87B6888
:104CC00024331846FCF7FFFF7B6818460837BD46BB
:104CD00080BD00BF181901083019010880B500AF68
:104CE0001448FCF727F9144A144912480BF0C8F885
:104CF0001348FDF78FFA104A124911480BF0C0F81B
:104D00001148FCF7D6FE0C4A10490F480BF0B8F8D2
:104D10000F48FBF70BFE0E490E48FCF75BFD0D49F3
:104D20000D48FCF75FFA044A0C490B480BF0A8F851
:104D300000BF80BDCC02002400000024810F0008C9
:104D400008030024614D00081C0700248B5600084E
:104D50006007002464070024780800248D4C0008B4
:104D600080B582B000AF7860054A7B681A607B68C6
:104D70001846FDF7C5FF7B6818460837BD4680BD5D
:104D80008418010880B582B000AF78607868FFF7BA
:104D9000E7FF40F2144178680BF0EAF87B681846A8
:104DA0000837BD4680BD80B582B000AF78607B68B3
:104DB0000833184600F08EFC03469BB218460837AD
:104DC000BD4680BD80B582B000AF78607B68083397
:104DD000184600F08AFC03469BB218460837BD46C9
:104DE00080BD80B582B000AF78600B46FB707B68F9
:104DF0000833FA781146184600F082FC00BF0837E5
:104E0000BD4680BD80B584B000AFF860B9607A60FF
:104E1000FB70FB6803F10800FB787A68B96800F062
:104E200092FC00BF1037BD4680BD80B58AB000AF90
:104E3000F860B9607A603B603A68BB68D31A002BAF
:104E4000B8BF5B423B623A6B7B68D31A002BB8BF9A
:104E50005B42FB61BA683B689A4201D2012301E0E0
:104E60004FF0FF33BB617A683B6B9A4201D201235A
:104E700001E04FF0FF337B613A6AFB69D31A7B6232
:104E800097F834303A6B3968F868FFF7BBFF22E0D7
:104E900097F834307A68B968F868FFF7B3FF7B6A2F
:104EA0005B003B61FB695B423A699A4207DD7A6AC3
:104EB000FB69D31A7B62BB69BA681344BB603A6969
:104EC0003B6A9A4207DA7A6A3B6A13447B627B69DF
:104ED0007A6813447B60BA683B689A42D8D17A6892
:104EE0003B6B9A42D4D100BF00BF2837BD4680BD7E
:104EF00080B588B002AFF860B9607A603B6097F81F
:104F00002830002B1BD0BB687B6113E07B683B61C2
:104F100009E097F824303A697969F868FFF772FF79
:104F20003B6901333B613A693B6A9A42F1D97B693B
:104F300001337B617A693B689A42E7D92BE0F868D4
:104F400097F8243001937B6800933B687A68B968CE
:104F5000FFF76BFFF86897F8243001933B6A0093E2
:104F60003B687A683968FFF760FFF86897F8243083
:104F700001933B6A0093BB683A6A3968FFF755FFB3
:104F8000F86897F8243001937B680093BB683A6A0D
:104F9000B968FFF74AFF00BF1837BD4680BD000063
:104FA00080B598B000AFF860B9607A603B600123CB
:104FB00087F84C3097F84C3087F84D3097F84D30E3
:104FC00087F84E3097F84E3087F84F30002387F837
:104FD0004B30FB6E002B06DABA6EFB6E1344BB66D9
:104FE000FB6E5B42FB66BB6E07EE903AB8EEE77B6A
:104FF0009FEDDB6B27EE066B9FEDDB5B86EE057BA3
:10500000F7EEC77BC7ED117ABA6EFB6E134407EE5D
:10501000903AB8EEE77B9FEDD26B27EE066B9FEDE3
:10502000D25B86EE057BF7EEC77BC7ED107A97ED76
:10503000110AFBF7D9FBB0EE407A3B6807EE903AD5
:10504000F8EE677A67EE277AC7ED0F7A97ED110AC7
:10505000FBF7DAFBF0EE407AB1EE677A3B6807EED9
:10506000903AF8EE677A67EE277AC7ED0E7A97EDF9
:10507000100AFBF7B9FBB0EE407A3B6807EE903AB6
:10508000F8EE677A67EE277AC7ED0D7A97ED100A8A
:10509000FBF7BAFBF0EE407AB1EE677A3B6807EEB9
:1050A000903AF8EE677A67EE277AC7ED0C7A97EDBB
:1050B0000D7AD7ED0F7A37EE677AD7ED0D6AD7ED17
:1050C0000F7A76EEE77A27EE277AD7ED0C6AD7EDDE
:1050D0000E7A76EEE76A97ED0C6AD7ED0E7A76EEE9
:1050E000677A66EEA77A77EE277AB0EE007AF4EE6A
:1050F000C77AF1EE10FA06D5FB6EB42B40F3BE81F1
:10510000012387F84B303B685B42FB650023BB659E
:105110003B68C3F101035B007B6597F84B3083F07C
:105120000103DBB2002B00F04181BB6D07EE903A2A
:10513000F8EEE77A97ED0F7A67EE277AC7ED0B7AEC
:10514000FB6D07EE903AF8EEE77A97ED0E7A67EE90
:10515000277AC7ED0A7ABB6D5B4207EE903AF8EE0C
:10516000E77A97ED0F7A67EE277AC7ED097AFB6D3C
:105170005B4207EE903AF8EEE77A97ED0E7A67EE2B
:10518000277AC7ED087ABB6D07EE903AF8EEE77A1A
:1051900097ED0D7A67EE277AC7ED077AFB6D07EE7C
:1051A000903AF8EEE77A97ED0C7A67EE277AC7ED3A
:1051B000067ABB6D5B4207EE903AF8EEE77A97ED20
:1051C0000D7A67EE277AC7ED057AFB6D5B4207EE35
:1051D000903AF8EEE77A97ED0C7A67EE277AC7ED0A
:1051E000047AFB6EB42B6CDD97ED0B7AD7ED087A61
:1051F00077EE677AF5EEC07AF1EE10FA0AD497ED01
:10520000077AD7ED047A77EE677AF5EEC07AF1EE99
:1052100010FA01DD012300E0002387F84F3097EDFD
:105220000B7AD7ED0A7A77EE677AF5EEC07AF1EE6F
:1052300010FA0AD497ED077AD7ED067A77EE677AF7
:10524000F5EEC07AF1EE10FA01DD012300E0002353
:1052500087F84E3097ED097AD7ED0A7A77EE677ABC
:10526000F5EEC07AF1EE10FA0AD497ED057AD7ED93
:10527000067A77EE677AF5EEC07AF1EE10FA01DD84
:10528000012300E0002387F84D3097ED097AD7ED30
:10529000087A77EE677AF5EEC07AF1EE10FA0AD462
:1052A00097ED057AD7ED047A77EE677AF5EEC07A56
:1052B000F1EE10FA01DD012300E0002387F84C3005
:1052C00074E097ED0B7AD7ED087A77EE677AF5EE12
:1052D000C07AF1EE10FA0CD597ED077AD7ED047A83
:1052E00077EE677AF5EEC07AF1EE10FA01DD012370
:1052F00000E0002387F84F3097ED0B7AD7ED0A7A5C
:1053000077EE677AF5EEC07AF1EE10FA0CD597EDEC
:10531000077AD7ED067A77EE677AF5EEC07AF1EE86
:1053200010FA01DD012300E0002387F84E3097EDED
:10533000097AD7ED0A7A77EE677AF5EEC07AF1EE60
:1053400010FA15D597ED057AD7ED067A77EE677ADC
:10535000F5EEC07AF1EE10FA0ADD012309E000BF94
:105360007A008BFCFA2109400000000000806640B2
:10537000002387F84D3097ED097AD7ED087A77EE5C
:10538000677AF5EEC07AF1EE10FA0CD597ED057A52
:10539000D7ED047A77EE677AF5EEC07AF1EE10FA7F
:1053A00001DD012300E0002387F84C3097F84F30EF
:1053B000002B0AD0FB6DBA68D11ABA6D7B681A440B
:1053C00097F87030F868FFF71DFD97F84E30002B06
:1053D0000AD0FA6DBB68D118BA6D7B681A4497F889
:1053E0007030F868FFF70EFD97F84D30002B0AD0AB
:1053F000FA6DBB68D118BB6D7A68D21A97F8703015
:10540000F868FFF7FFFC97F84C30002B0AD0FB6DD3
:10541000BA68D11ABB6D7A68D21A97F87030F868FA
:10542000FFF7F0FC7B6D3B653A6DBB6D9A4213DC78
:10543000BB6D0133BB65BB6D5B0001337A6D1344FB
:105440007B65FB6D5B42BA6D9A4205D13A6DFB6D8F
:105450009A4201DC00233B653A6DFB6D9A4208DD00
:10546000FB6D0133FB65FB6D5B0001337A6D13440B
:105470007B65FB6D002B7FF750AE00E000BF60370F
:10548000BD4680BD80B588B000AFF860084639469B
:1054900081E80C000346FB72FB7A1F2B02D9FB7AD2
:1054A0007E2B01D900237FE0FA68FB681B680C3370
:1054B0001B681046984703461A46FB689B881946A6
:1054C0003B780B449A420FDBFA68FB681B68083391
:1054D0001B681046984703461A46FB68DB88194646
:1054E0007B780B449A4201DA012300E00023002B71
:1054F00001D0002358E00023FB6144E07A68FB7A86
:10550000203B797801FB03F31946FB690B445B00F0
:1055100013441B887B610023BB612CE07A69BB6963
:1055200002FA03F303F40043002B0FD0FB689B88BF
:105530001A46BB69D118FB68DB881A46FB691A4416
:1055400097F82830F868FFF75DFC11E0FB689B884E
:105550001A46BB69D118FB68DB881A46FB691A44F6
:1055600097F8283083F00103DBB2F868FFF74AFCB4
:10557000BB690133BB613B781A46BB699342CDD30B
:10558000FB690133FB617B781A46FB699342B5D313
:10559000F868FB689B883A78134499B2FB68DB880B
:1055A0001A46FBF78BFCFB7A18462037BD4680BDB8
:1055B00080B586B002AFF860B960394681E80C006A
:1055C00019E0F868BB6819783B7E00933B460CCB2A
:1055D000FFF758FF03461A46BB681B789A4214BF70
:1055E00001230023DBB2002B02D0BB681B7808E04C
:1055F000BB680133BB60BB681B78002BE1D1BB6883
:105600001B7818461037BD4680BDB0B588B002AFD4
:10561000F860B9607A603B6007F110003B687A6817
:10562000B96800F0DEF8F86807F11001FB6ABA6AA1
:10563000FBF794FABC68F868FBF718FA03469DB2CA
:10564000F868FBF720FA03469BB21A462946204623
:10565000FBF734FCB8683B6897F8302000920CCB1D
:105660007968FFF7A5FF00BFF8681837BD46B0BDE1
:1056700080B582B000AF78607B680833184600F0D0
:10568000D0F800BF0837BD4680BD80B58AB000AFF6
:10569000786007F1080379681846FDF771FC07F197
:1056A00018037968184600F0EFF87B681846FDF794
:1056B00082FC034607F1180207F10801786800F040
:1056C000F2F87B681846FCF7DCFD7B681846283743
:1056D000BD4680BD80B483B000AF786040231846DB
:1056E0000C37BD465DF8047B704780B483B000AFD3
:1056F0007860802318460C37BD465DF8047B704700
:1057000080B485B000AF78600B46FB700023FB606F
:105710000EE0FB78002B01D0FF2100E000217A6829
:10572000FB6813440C330A461A70FB680133FB60B4
:10573000FB68B3F5806FECD300BF00BF1437BD46E4
:105740005DF8047B704780B485B000AFF860B96045
:105750007A60FB70BB687F2B3DD87B683F2B3AD8C3
:10576000FB78002B1AD07B68DB08D901BA680A44A1
:10577000F9680A44127B51B27A6802F007020120EC
:1057800000FA02F252B20A4351B2DA01BB68134482
:10579000C9B2FA6813440A461A731DE07B68DB0835
:1057A000D901BA680A44F9680A44127B51B27A688E
:1057B00002F00702012000FA02F252B2D24352B2C2
:1057C0000A4051B2DA01BB681344C9B2FA68134403
:1057D0000A461A7300E000BF1437BD465DF8047B2B
:1057E000704780B586B000AFF860B9607A603B6002
:1057F0007968B86800F064F878613B681B781A46ED
:105800007B699BB212FB03F39BB219B23B685B78D6
:105810001BB21A46F868FBF7D2F8F8681837BD468D
:1058200080BD80B584B000AF78601023BB7300BF2B
:105830000023FB7320E07A68FB7B503BDBB2194608
:105840001046FBF7BAFB7B6800211846FBF7B5FB57
:105850007B68BA7B11461846FBF7AFFB7868FB7B89
:10586000DB0108337A681344043380221946FBF7BE
:10587000BAFBFB7B0133FB73FB7B072BDBD900BF40
:1058800000BF1037BD4680BD80B582B000AF7860E4
:1058900039603B68183319467868FEF76EF8786807
:1058A0000837BD4680BD80B48DB000AFF860B960E8
:1058B0007A603B6000BF3437BD465DF8047B7047BB
:1058C00080B485B000AF786039600023FB6002E0EF
:1058D000FB680133FB603B685A1C3A601B78002B65
:1058E00014BF01230023DBB2002BF1D1FB68184663
:1058F0001437BD465DF8047B704780B500AFFFF7F5
:10590000EDF980BD0B4901230B4A038280F8273053
:1059100080F82B3010B4C0E90112084C40F202713B
:1059200040F60662C460A0F825105DF8044BA0F8AC
:10593000292070470508050905070506050A06061A
:105940001F2882B009D8084B03EB400213F810302F
:10595000507843EA002002B0704701230C2043EA4C
:10596000002002B0704700BFC01B0108F0B5032340
:1059700099B001250027064609A80E97CDE91235F2
:105980002A4B0F9340F20453ADF84030284BCDE939
:105990001475099300F054FB09A800F02FFC0028AF
:1059A00035D1244B04AF04460790CDF84230102384
:1059B000394600908DF820301F4B049505930695CD
:1059C000CDE91650684600F0A1FD0823009A01A910
:1059D00009A8ADF804508DF8064009940295039388
:1059E00000F0B8F800230EA938463024049301F0E3
:1059F0000FFB03224FF07E5309A906F114000B930D
:105A0000CDE90942049A00F0D9FA19B0F0BD40F688
:105A10000132084B169704AFADF824200998CDF851
:105A20004230179500F058F8DCE700BF0402040488
:105A300003030001040604030704010B30B540F220
:105A40000112002304462DED028B83B00091ADF8C6
:105A500004208DF8063003F0D3F968BB694604F1E1
:105A6000300003F035F9211D204600F07DFF04F1E0
:105A7000250000F0E5FA04F1290000F0E1FA04F154
:105A8000120000F089F904F114052046FFF76EFFBB
:105A9000284600F0C9FA2846B0EE408A00F0C0FA65
:105AA000D0ED007AF8EE677A88EE277A84ED0E7AE8
:105AB00003B0BDEC028B30BD05460123694604F1FD
:105AC00030008DF8063003F003F9072DDBD0211DDF
:105AD000204600F049FFD6E710B584B00346012404
